:020000040000FA
:040000009CEF05F07C
:100600000001000A006400E8031027454550524FDE
:100610004D3A2025750A0048554D49443A20257524
:0D0620000A0054454D503A2025750A00008F
:10062E00000E516E000E506ED4EC05F0EBEC05F0A2
:10063E00250E026E800E016EBDEC05F07DEC05F010
:10064E00B2EC05F0060E1B6E130E1A6EAE0EE82EF1
:10065E00FED71A2EFCD71B2EFAD7060E1B6E130EC4
:10066E001A6EAE0EE82EFED71A2EFCD71B2EFAD718
:10067E009392060E1B6E130E1A6EAE0EE82EFED75A
:10068E001A2EFCD71B2EFAD79382060E1B6E130E54
:10069E001A6EAE0EE82EFED71A2EFCD71B2EFAD7E8
:1006AE009390060E1B6E130E1A6EAE0EE82EFED72C
:1006BE001A2EFCD71B2EFAD79380000EF9EC04F0FD
:1006CE0001C04EF002C04FF0300E0D6E000E0E6ED9
:1006DE00220E0F6E060E106E4EC011F04FC012F0AD
:1006EE00DBEC03F0300E026E000E036E51EC05F0E3
:1006FE00020E1B6E040E1A6EBA0EE82EFED71A2EBE
:10070E00FCD71B2EFAD700D0010EF9EC04F001C075
:10071E0050F002C051F0300E0D6E000E0E6E170E20
:10072E000F6E060E106E50C011F051C012F0DBECC1
:10073E0003F0300E026E000E036E51EC05F0020E49
:10074E001B6E040E1A6EBA0EE82EFED71A2EFCD7AA
:10075E001B2EFAD700D0440E0D6E000E0E6E0B0E31
:10076E000F6E060E106E1CC011F0126ADBEC03F059
:10077E00440E026E000E036E51EC05F08EEC05F089
:10078E0069EC05F00D0E1A6EFC0EE82EFED71A2E31
:10079E00FCD70D0E1A6EFC0EE82EFED71A2EFCD7C5
:1007AE0034EF03F000EF00F0110E146E000E156E14
:1007BE0075EF04F0250E1918D8B4E8EF03F0EAEF40
:1007CE0003F0F4EF03F00DC0D9FF0EC0DAFF19C02D
:1007DE00DFFF0D4A0E2A75EF04F0000E136EFCEFCC
:1007EE0003F0C00E131210EF04F00FC0F6FF10C08E
:1007FE00F7FF0F4A102A0800F5CF19F01950000A1A
:10080E00D8B486EF04F0750AD8B4F8EF03F075EF9C
:10081E0004F014C0D9FF15C0DAFFDECF16F0DDCF1D
:10082E0017F0020E1426000E1522010E196E195025
:10083E00020D010EF324F66E060EF420F76E09007B
:10084E00F550165C0900F5501758D8B031EF04F08A
:10085E0033EF04F035EF04F03FEF04F0192A050EE4
:10086E001918D8A43DEF04F03FEF04F01EEF04F08A
:10087E0019C018F06CEF04F01850020D010EF3249D
:10088E00F66E060EF420F76E0900F5CF03F00A009F
:10089E00F5CF04F016C001F017C002F08DEC04F095
:1008AE0001C008F002C009F0000E0B6E0A0E0A6EAF
:1008BE00C7EC04F00850300F196E0DC0D9FF0EC0F2
:1008CE00DAFF19C0DFFF0D4A0E2A18061828D8A421
:1008DE0073EF04F075EF04F043EF04F00FC0F6FF72
:1008EE0010C0F7FF0F4A102A0800F5CF19F0195063
:1008FE00D8A484EF04F086EF04F0E1EF03F00DC00E
:10090E00D9FF0EC0DAFF000EDF6E1200000E066E6B
:10091E00000E056E03500410D8B498EF04F09AEF51
:10092E0004F0C2EF04F0010E076EA2EF04F0D890AF
:10093E0003360436072A04AEA7EF04F0A9EF04F03D
:10094E009EEF04F0D890053606360350015C045035
:10095E000258D8A0B5EF04F0B7EF04F0BCEF04F0E6
:10096E000350015E0450025A0580D89004320332BF
:10097E00072EA9EF04F005C001F006C002F0120028
:10098E000A500B10D8B4CEEF04F0D0EF04F0F4EF11
:10099E0004F0010E0C6ED8EF04F0D8900A360B3628
:1009AE000C2A0BAEDDEF04F0DFEF04F0D4EF04F011
:1009BE000A50085C0B500958D8A0E8EF04F0EAEF93
:1009CE0004F0EEEF04F00A50085E0B50095AD8906E
:1009DE000B320A320C2EDFEF04F008C008F009C00B
:1009EE0009F01200076E0750D8A400EF05F002EFD1
:1009FE0005F006EF05F0C250C30B0409C26E0704E2
:100A0E00D8A40CEF05F00EEF05F012EF05F0C25072
:100A1E00C30B0809C26EC282C2B218EF05F01AEFFC
:100A2E0005F013EF05F0C350C4CF03F0046A03C002
:100A3E0004F0036A0310056E0450066E05C001F043
:100A4E0006C002F01200D80ECF6EEF0ECE6ECD8025
:100A5E00000E9EB6010E9EB0010EE8B039EF05F005
:100A6E003DEF05F0016A012A3EEF05F0016A0150E3
:100A7E00D8B444EF05F046EF05F02FEF05F09EA039
:100A8E004BEF05F04DEF05F04DEF05F09E969E9065
:100A9E00CD5012005CEF05F002C0D9FF03C0DAFFA3
:100AAE00DF50A7EC05F0024A032A02C0D9FF03C0AB
:100ABE00DAFFDF50D8A466EF05F068EF05F053EFCC
:100ACE0005F01200E3EC05F0DE0ECEEC05F0000EA4
:100ADE00CEEC05F0E7EC05F0DF0ECEEC05F0C7EC42
:100AEE0005F0DAEC05F0DFEC05F01200928292844C
:100AFE00C150F00B0C09C16EC198C19AC050F80BD1
:100B0E000609C06E380EC012C08EC2801200E3EC11
:100B1E0005F0DE0ECEEC05F0000ECEEC05F0FF0E6D
:100B2E00CEEC05F0DFEC05F0120000EE52F00E0EEA
:100B3E00EE6AE806FDE1000EF86E000117EF03F015
:100B4E00016E9EA8ADEF05F0AFEF05F0A8EF05F032
:100B5E0001C0ADFF120094869488130EC86EC68A2B
:100B6E00C650F00B0809C66E9E961200AC8AAC9861
:100B7E00AC94B896AB8E000EB06E0C0EAF6E12002B
:100B8E00C5862AEC05F0C9CF03F003501200036EA0
:100B9E0003C0C9FF2AEC05F01200700ED312D39ECB
:100BAE00030ED3121200C58AC5882AEC05F0120076
:100BBE00C5842AEC05F01200C5802AEC05F012005F
:0E0BCE00C5822AEC05F01200948C948E120061
:020000040020DA
:08000000FFFFFFFFFFFFFFFF00
:020000040030CA
:0E000000FF091F1EFF8385FF0FC00FE00F409A
:00000001FF
