:020000040000FA
:040000003DEF19F0C7
:1006000000446176652069732061206C6567656EC2
:1006100064210A0048554D49443A2025750A005482
:10062000454D503A2025750A00686858006868648E
:10063000006868690068686E0068686F00686875BF
:1006400000686878007A58007A64007A69007A6EE7
:0B065000007A6F007A75007A780000D5
:10065C0045C0D9FF46C0DAFFDECFF6FFDDCFF7FF8E
:10066C000800F550250AD8A43EEF03F040EF03F044
:10067C002BEF0CF045C0D9FF46C0DAFFDE2A000E86
:10068C00DD22000E00018F6F000E8E6F8EC092F077
:10069C008FC093F090699169000E506E000E4F6EF2
:1006AC00A3EF03F00001928145C0D9FF46C0DAFFE9
:1006BC00DE2A000EDD22A3EF03F0000192835AEF35
:1006CC0003F0000192855AEF03F0000192875AEF74
:1006DC0003F0000192895AEF03F0000E506E010EE8
:1006EC004F6EA3EF03F045C0D9FF46C0DAFFDECF53
:1006FC00F6FFDDCFF7FF0800F550496E4A6A4A5005
:10070C00000AD8B48CEF03F073EF03F04950200AC1
:10071C00D8B46BEF03F0030AD8B46FEF03F0080AF8
:10072C00D8B467EF03F0060AD8B458EF03F01D0AEB
:10073C00D8B463EF03F073EF03F04F505010D8B4FC
:10074C00AAEF03F0ACEF03F079EF03F0000192A1F4
:10075C00B2EF03F0B4EF03F0B5EF03F0929345C0A2
:10076C00D9FF46C0DAFFDECFF6FFDDCFF7FF08007A
:10077C00F5502A0AD8A4C5EF03F0C7EF03F0F0EF49
:10078C0003F045C0D9FF46C0DAFFDE2A000EDD2299
:10079C0047C0D9FF48C0DAFFDFCF49F0020EDE2692
:1007AC00DFCF4AF0000EDD2249C0D9FF4AC0DAFF84
:1007BC00DECF8EF0DDCF8FF08FBFE9EF03F0E7EFE8
:1007CC0003F033EF04F092818E6D8F1FD8B08F2B16
:1007DC0033EF04F045C0D9FF46C0DAFFDECF08F096
:1007EC00DDCF09F01CEC11F008C08EF009C08FF0C1
:1007FC0007EF04F045C0D9FF46C0DAFFDE2A000E31
:10080C00DD22D00E496EFF0E4A6E45C0D9FF46C0A0
:10081C00DAFFDECFF6FFDDCFF7FF0800F5504B6EA9
:10082C004C6A49504B264A504C224C500AE10A0E55
:10083C004B5CD8A024EF04F027EF04F0010E28EF56
:10084C0004F0000E516E526A51505210D8A431EF80
:10085C0004F033EF04F000EF04F045C0D9FF46C0BC
:10086C00DAFFDECFF6FFDDCFF7FF0800F5502E0ADA
:10087C00D8A443EF04F045EF04F0C3EF04F0000EEE
:10088C000001916F000E906F45C0D9FF46C0DAFF92
:10089C00DE2A000EDD2245C0D9FF46C0DAFFDECFCE
:1008AC00F6FFDDCFF7FF0800F5502A0AD8A461EF58
:1008BC0004F063EF04F080EF04F045C0D9FF46C0AC
:1008CC00DAFFDE2A000EDD2247C0D9FF48C0DAFF6E
:1008DC00DFCF49F0020EDE26DFCF4AF0000EDD221C
:1008EC0049C0D9FF4AC0DAFFDECF90F0DDCF91F0DE
:1008FC00C3EF04F045C0D9FF46C0DAFFDECF08F0E5
:10090C00DDCF09F01CEC11F008C090F009C091F09B
:10091C0097EF04F045C0D9FF46C0DAFFDE2A000E7F
:10092C00DD22D00E496EFF0E4A6E45C0D9FF46C07F
:10093C00DAFFDECFF6FFDDCFF7FF0800F5504B6E88
:10094C004C6A49504B264A504C224C500AE10A0E34
:10095C004B5CD8A0B4EF04F0B7EF04F0010EB8EF85
:10096C0004F0000E536E546A53505410D8A4C1EFC7
:10097C0004F0C3EF04F090EF04F045C0D9FF46C07B
:10098C00DAFFDECFF6FFDDCFF7FF0800F550630A84
:10099C00D8A4D3EF04F0D5EF04F0FCEF04F045C07D
:1009AC00D9FF46C0DAFFDE2A000EDD2247C0D9FF90
:1009BC0048C0DAFFDFCF49F0020EDE26DFCF4AF067
:1009CC00000EDD2249C0D9FF4AC0DAFFDF505F6E4E
:1009DC0043C00AF044C00BF05FC00CF00CEC16F0F6
:1009EC000AC043F00BC044F046EF0CF045C0D9FFF1
:1009FC0046C0DAFFDECF01F0DDCF02F02D0E036E24
:100A0C00060E046E000E066E030E056E9DEC15F0C0
:100A1C0001500210D8B415EF05F017EF05F032EFC6
:100A2C0005F045C0D9FF46C0DAFFDECF01F0DDCFBF
:100A3C0002F0310E036E060E046E000E066E030EEF
:100A4C00056E9DEC15F001500210D8A430EF05F0A6
:100A5C0032EF05F072EF05F0030E45C0D9FF46C02A
:100A6C00DAFFDE26000EDD2247C0D9FF48C0DAFFD0
:100A7C00DFCF49F0020EDE26DFCF4AF0000EDD227A
:100A8C0049C0D9FF4AC0DAFFDF50556E000E55BE83
:100A9C00FF0E566E576E586E596E5A6E5B6E5C6ECC
:100AAC0043C01CF044C01DF055C01EF056C01FF0D2
:100ABC0057C020F058C021F059C022F05AC023F082
:100ACC005BC024F05CC025F047EC0CF01CC043F07C
:100ADC001DC044F046EF0CF045C0D9FF46C0DAFF0C
:100AEC00DECF01F0DDCF02F02E0E036E060E046E8B
:100AFC00000E066E020E056E9DEC15F001500210F4
:100B0C00D8B48BEF05F08DEF05F0A8EF05F045C0DC
:100B1C00D9FF46C0DAFFDECF01F0DDCF02F0320E96
:100B2C00036E060E046E000E066E020E056E9DEC34
:100B3C0015F001500210D8A4A6EF05F0A8EF05F0AF
:100B4C00CFEF05F0020E45C0D9FF46C0DAFFDE2616
:100B5C00000EDD2247C0D9FF48C0DAFFDFCF49F0D5
:100B6C00020EDE26DFCF4AF0000EDD2249C0D9FF8F
:100B7C004AC0DAFFDECF55F0DDCF56F0000E56BE80
:100B8C00FF0E576E586E596E5A6E5B6E5C6E56EF5A
:100B9C0005F045C0D9FF46C0DAFFDECFF6FFDDCF4A
:100BAC00F7FF0800F550640AD8B4DFEF05F0E1EF69
:100BBC0005F0F3EF05F045C0D9FF46C0DAFFDECFF4
:100BCC00F6FFDDCFF7FF0800F550690AD8A4F1EF66
:100BDC0005F0F3EF05F019EF06F045C0D9FF46C05C
:100BEC00DAFFDE2A000EDD2247C0D9FF48C0DAFF4B
:100BFC00DFCF49F0020EDE26DFCF4AF0000EDD22F9
:100C0C0049C0D9FF4AC0DAFFDECF55F0DDCF56F030
:100C1C00000E56BEFF0E576E586E596E5A6E5B6EB6
:100C2C005C6E56EF05F045C0D9FF46C0DAFFDECF4B
:100C3C0001F0DDCF02F0480E036E060E046E000EBE
:100C4C00066E020E056E9DEC15F001500210D8B424
:100C5C0032EF06F034EF06F04FEF06F045C0D9FF47
:100C6C0046C0DAFFDECF01F0DDCF02F04B0E036E93
:100C7C00060E046E000E066E020E056E9DEC15F04F
:100C8C0001500210D8A44DEF06F04FEF06F077EFAD
:100C9C0006F0020E45C0D9FF46C0DAFFDE26000E74
:100CAC00DD2247C0D9FF48C0DAFFDFCF49F0020E82
:100CBC00DE26DFCF4AF0000EDD2249C0D9FF4AC044
:100CCC00DAFFDECF4BF0DDCF4CF04BC055F04CC013
:100CDC0056F0576A586A596A5A6A5B6A5C6A56EFE8
:100CEC0005F045C0D9FF46C0DAFFDECF01F0DDCFFD
:100CFC0002F0390E036E060E046E000E066E030E25
:100D0C00056E9DEC15F001500210D8A490EF06F082
:100D1C0092EF06F0D1EF06F0030E45C0D9FF46C0A6
:100D2C00DAFFDE26000EDD2247C0D9FF48C0DAFF0D
:100D3C00DFCF49F0020EDE26DFCF4AF0000EDD22B7
:100D4C0049C0D9FF4AC0DAFFDF504B6E4B50606E82
:100D5C00616A626A636A646A656A666A676A43C0E2
:100D6C001CF044C01DF060C01EF061C01FF062C0DA
:100D7C0020F063C021F064C022F065C023F066C08F
:100D8C0024F067C025F025EC10F01CC043F01DC00A
:100D9C0044F046EF0CF045C0D9FF46C0DAFFDECF79
:100DAC0001F0DDCF02F03A0E036E060E046E000E5B
:100DBC00066E020E056E9DEC15F001500210D8A4C3
:100DCC00EAEF06F0ECEF06F014EF07F0020E45C068
:100DDC00D9FF46C0DAFFDE26000EDD2247C0D9FF60
:100DEC0048C0DAFFDFCF49F0020EDE26DFCF4AF033
:100DFC00000EDD2249C0D9FF4AC0DAFFDECF4BF02E
:100E0C00DDCF4CF04BC060F04CC061F0626A636A9D
:100E1C00646A656A666A676AB5EF06F045C0D9FF11
:100E2C0046C0DAFFDECFF6FFDDCFF7FF0800F55046
:100E3C006F0AD8A424EF07F026EF07F04DEF07F068
:100E4C0045C0D9FF46C0DAFFDE2A000EDD2247C0BE
:100E5C00D9FF48C0DAFFDFCF49F0020EDE26DFCF24
:100E6C004AF0000EDD2249C0D9FF4AC0DAFFDECFBE
:100E7C004BF0DDCF4CF04BC060F04CC061F0626ABF
:100E8C00636A646A656A666A676AB5EF06F045C0AC
:100E9C00D9FF46C0DAFFDECF01F0DDCF02F0510EF4
:100EAC00036E060E046E000E066E020E056E9DECB1
:100EBC0015F001500210D8A466EF07F068EF07F0A8
:100ECC0090EF07F0020E45C0D9FF46C0DAFFDE26D0
:100EDC00000EDD2247C0D9FF48C0DAFFDFCF49F052
:100EEC00020EDE26DFCF4AF0000EDD2249C0D9FF0C
:100EFC004AC0DAFFDECF4BF0DDCF4CF04BC060F0D8
:100F0C004CC061F0626A636A646A656A666A676AA1
:100F1C00B5EF06F045C0D9FF46C0DAFFDECF01F0D1
:100F2C00DDCF02F0350E036E060E046E000E066E5B
:100F3C00030E056E9DEC15F001500210D8A4A9EF1C
:100F4C0007F0ABEF07F0D3EF07F0030E45C0D9FF66
:100F5C0046C0DAFFDE26000EDD2247C0D9FF48C0AE
:100F6C00DAFFDFCF49F0020EDE26DFCF4AF0000EAB
:100F7C00DD2249C0D9FF4AC0DAFFDECF5DF0DDCFFC
:100F8C005EF05DC0D9FF5EC0DAFF8CC0DFFF000EE3
:100F9C00446E000E436E46EF0CF045C0D9FF46C0C0
:100FAC00DAFFDECF01F0DDCF02F0360E036E060E57
:100FBC00046E000E066E020E056E9DEC15F00150CF
:100FCC000210D8A4ECEF07F0EEEF07F014EF08F0E6
:100FDC00020E45C0D9FF46C0DAFFDE26000EDD2228
:100FEC0047C0D9FF48C0DAFFDFCF49F0020EDE263A
:100FFC00DFCF4AF0000EDD2249C0D9FF4AC0DAFF2C
:10100C00DECF5DF0DDCF5EF05DC0D9FF5EC0DAFFF4
:10101C008CC0DEFF8DC0DDFFCDEF07F045C0D9FFE2
:10102C0046C0DAFFDECFF6FFDDCFF7FF0800F55044
:10103C006E0AD8A424EF08F026EF08F04BEF08F066
:10104C0045C0D9FF46C0DAFFDE2A000EDD2247C0BC
:10105C00D9FF48C0DAFFDFCF49F0020EDE26DFCF22
:10106C004AF0000EDD2249C0D9FF4AC0DAFFDECFBC
:10107C005DF0DDCF5EF05DC0D9FF5EC0DAFF8CC0E5
:10108C00DEFF8DC0DDFFCDEF07F045C0D9FF46C0B8
:10109C00DAFFDECF01F0DDCF02F04E0E036E060E4E
:1010AC00046E000E066E020E056E9DEC15F00150DE
:1010BC000210D8A464EF08F066EF08F08CEF08F08B
:1010CC00020E45C0D9FF46C0DAFFDE26000EDD2237
:1010DC0047C0D9FF48C0DAFFDFCF49F0020EDE2649
:1010EC00DFCF4AF0000EDD2249C0D9FF4AC0DAFF3B
:1010FC00DECF5DF0DDCF5EF05DC0D9FF5EC0DAFF04
:10110C008CC0DEFF8DC0DDFFCDEF07F045C0D9FFF1
:10111C0046C0DAFFDECFF6FFDDCFF7FF0800F55053
:10112C00700AD8A49CEF08F09EEF08F0E1EF08F0ED
:10113C0045C0D9FF46C0DAFFDE2A000EDD2247C0CB
:10114C00D9FF48C0DAFFDFCF49F0020EDE26DFCF31
:10115C004AF0000EDD2249C0D9FF4AC0DAFFDECFCB
:10116C004BF0DDCF4CF04BC060F04CC061F0626ACC
:10117C00636A646A656A666A676A43C01CF044C045
:10118C001DF060C01EF061C01FF062C020F063C093
:10119C0021F064C022F065C023F066C024F067C063
:1011AC0025F0780E266EB8EC0DF01CC043F01DC077
:1011BC0044F046EF0CF045C0D9FF46C0DAFFDECF55
:1011CC00F6FFDDCFF7FF0800F550730AD8A4F1EF56
:1011DC0008F0F3EF08F01EEF09F045C0D9FF46C048
:1011EC00DAFFDE2A000EDD2247C0D9FF48C0DAFF45
:1011FC00DFCF49F0020EDE26DFCF4AF0000EDD22F3
:10120C0049C0D9FF4AC0DAFFDECF4DF0DDCF4EF03A
:10121C0043C00AF044C00BF04DC00CF04EC00DF0B2
:10122C00A8EC12F00AC043F00BC044F046EF0CF0EF
:10123C0045C0D9FF46C0DAFFDECF01F0DDCF02F0AA
:10124C003D0E036E060E046E000E066E030E056E4A
:10125C009DEC15F001500210D8A437EF09F039EFCE
:10126C0009F078EF09F0030E45C0D9FF46C0DAFF4C
:10127C00DE26000EDD2247C0D9FF48C0DAFFDFCFE3
:10128C0049F0020EDE26DFCF4AF0000EDD2249C007
:10129C00D9FF4AC0DAFFDF504B6E4B50606E616A6B
:1012AC00626A636A646A656A666A676A43C01CF04C
:1012BC0044C01DF060C01EF061C01FF062C020F081
:1012CC0063C021F064C022F065C023F066C024F036
:1012DC0067C025F024EC0FF01CC043F01DC044F097
:1012EC0046EF0CF045C0D9FF46C0DAFFDECF01F067
:1012FC00DDCF02F03E0E036E060E046E000E066E7F
:10130C00020E056E9DEC15F001500210D8A491EF61
:10131C0009F093EF09F0BBEF09F0020E45C0D9FFBD
:10132C0046C0DAFFDE26000EDD2247C0D9FF48C0DA
:10133C00DAFFDFCF49F0020EDE26DFCF4AF0000ED7
:10134C00DD2249C0D9FF4AC0DAFFDECF4BF0DDCF3A
:10135C004CF04BC060F04CC061F0626A636A646A26
:10136C00656A666A676A5CEF09F045C0D9FF46C0DA
:10137C00DAFFDECFF6FFDDCFF7FF0800F550750A78
:10138C00D8A4CBEF09F0CDEF09F0F4EF09F045C08C
:10139C00D9FF46C0DAFFDE2A000EDD2247C0D9FF96
:1013AC0048C0DAFFDFCF49F0020EDE26DFCF4AF06D
:1013BC00000EDD2249C0D9FF4AC0DAFFDECF4BF068
:1013CC00DDCF4CF04BC060F04CC061F0626A636AD8
:1013DC00646A656A666A676A5CEF09F045C0D9FFA2
:1013EC0046C0DAFFDECF01F0DDCF02F0540E036E03
:1013FC00060E046E000E066E020E056E9DEC15F0C8
:10140C0001500210D8A40DEF0AF00FEF0AF037EFDD
:10141C000AF0020E45C0D9FF46C0DAFFDE26000EE8
:10142C00DD2247C0D9FF48C0DAFFDFCF49F0020EFA
:10143C00DE26DFCF4AF0000EDD2249C0D9FF4AC0BC
:10144C00DAFFDECF4BF0DDCF4CF04BC060F04CC080
:10145C0061F0626A636A646A656A666A676A5CEF0D
:10146C0009F045C0D9FF46C0DAFFDECF01F0DDCF71
:10147C0002F0410E036E060E046E000E066E030E95
:10148C00056E9DEC15F001500210D8B450EF0AF027
:10149C0052EF0AF06DEF0AF045C0D9FF46C0DAFFF3
:1014AC00DECF01F0DDCF02F0290E036E060E046EC6
:1014BC00000E066E030E056E9DEC15F00150021029
:1014CC00D8A46BEF0AF06DEF0AF0C1EF0AF045C03B
:1014DC00D9FF46C0DAFFDECF49F0DDCF4AF0020E6D
:1014EC004926000E4A2249C0F6FF4AC0F7FF080001
:1014FC00F5CF5FF0030E45C0D9FF46C0DAFFDE26FC
:10150C00000EDD2247C0D9FF48C0DAFFDFCF49F01B
:10151C00020EDE26DFCF4AF0000EDD2249C0D9FFD5
:10152C004AC0DAFFDF504B6E4B50606E616A626AE4
:10153C00636A646A656A666A676A43C01CF044C081
:10154C001DF060C01EF061C01FF062C020F063C0CF
:10155C0021F064C022F065C023F066C024F067C09F
:10156C0025F05FC026F0B8EC0DF01CC043F01DC098
:10157C0044F046EF0CF045C0D9FF46C0DAFFDECF91
:10158C0001F0DDCF02F0420E036E060E046E000E6B
:10159C00066E020E056E9DEC15F001500210D8B4CB
:1015AC00DAEF0AF0DCEF0AF0F7EF0AF045C0D9FFEA
:1015BC0046C0DAFFDECF01F0DDCF02F02A0E036E5B
:1015CC00060E046E000E066E020E056E9DEC15F0F6
:1015DC0001500210D8A4F5EF0AF0F7EF0AF032EF41
:1015EC000BF045C0D9FF46C0DAFFDECF49F0DDCFA6
:1015FC004AF0010E4926000E4A2249C0F6FF4AC0A5
:10160C00F7FF0800F5CF5FF0020E45C0D9FF46C0CA
:10161C00DAFFDE26000EDD2247C0D9FF48C0DAFF14
:10162C00DFCF49F0020EDE26DFCF4AF0000EDD22BE
:10163C0049C0D9FF4AC0DAFFDECF4BF0DDCF4CF00A
:10164C004BC060F04CC061F0626A636A646A656AA0
:10165C00666A676AA3EF0AF045C0D9FF46C0DAFF95
:10166C00DECFF6FFDDCFF7FF0800F550780AD8B4CF
:10167C0042EF0BF044EF0BF056EF0BF045C0D9FFE7
:10168C0046C0DAFFDECFF6FFDDCFF7FF0800F550DE
:10169C00580AD8A454EF0BF056EF0BF088EF0BF070
:1016AC0045C0D9FF46C0DAFFDECFF6FFDDCFF7FF2E
:1016BC000800F5CF5FF045C0D9FF46C0DAFFDE2A3F
:1016CC00000EDD2247C0D9FF48C0DAFFDFCF49F05A
:1016DC00020EDE26DFCF4AF0000EDD2249C0D9FF14
:1016EC004AC0DAFFDECF4BF0DDCF4CF04BC060F0E0
:1016FC004CC061F0626A636A646A656A666A676AAA
:10170C00A3EF0AF045C0D9FF46C0DAFFDECF01F0E7
:10171C00DDCF02F0570E036E060E046E000E066E41
:10172C00020E056E9DEC15F001500210D8B4A1EF1D
:10173C000BF0A3EF0BF0BEEF0BF045C0D9FF46C08A
:10174C00DAFFDECF01F0DDCF02F0450E036E060EA0
:10175C00046E000E066E020E056E9DEC15F0015027
:10176C000210D8A4BCEF0BF0BEEF0BF0F9EF0BF0AE
:10177C0045C0D9FF46C0DAFFDECF49F0DDCF4AF0D5
:10178C00010E4926000E4A2249C0F6FF4AC0F7FF57
:10179C000800F5CF5FF0020E45C0D9FF46C0DAFF56
:1017AC00DE26000EDD2247C0D9FF48C0DAFFDFCFAE
:1017BC0049F0020EDE26DFCF4AF0000EDD2249C0D2
:1017CC00D9FF4AC0DAFFDECF4BF0DDCF4CF04BC077
:1017DC0060F04CC061F0626A636A646A656A666A4A
:1017EC00676AA3EF0AF045C0D9FF46C0DAFFDECF27
:1017FC00F6FFDDCFF7FF0800F550250AD8A409EF56
:10180C000CF00BEF0CF022EF0CF045C0D9FF46C0EA
:10181C00DAFFDE2A000EDD22000E026E250E016EAE
:10182C0043C003F044C004F0E0EC16F0000E446E2C
:10183C00010E436E46EF0CF045C0D9FF46C0DAFFEF
:10184C00DE2A000EDD22CDEF07F045C0D9FF46C0E1
:10185C00DAFFDECFF6FFDDCFF7FF0800F550016EA3
:10186C00026A43C003F044C004F0E0EC16F045C03B
:10187C00D9FF46C0DAFFDE2A000EDD221CEF0CF089
:10188C0012001EC036F01FC037F020C038F021C047
:10189C0039F022C03AF023C03BF024C03CF025C004
:1018AC003DF03DBE5CEF0CF05FEF0CF0010E60EF15
:1018BC000CF0000E346E356A34503510D8B469EF24
:1018CC000CF06BEF0CF07BEF0CF03D1E3C1E3B1E46
:1018DC003A1E391E381E371E366C000E372238223F
:1018EC0039223A223B223C223D22000191BF81EF5A
:1018FC000CF083EF0CF084EF0CF0929391BF91EF0E
:10190C000CF0915106E19005D8B08FEF0CF091EFEF
:10191C000CF097EF0CF0000E316E010E306E9BEF59
:10192C000CF090C030F091C031F08EC032F08FC00E
:10193C0033F034503510D8A4A6EF0CF0A8EF0CF00F
:10194C00AFEF0CF092A5ADEF0CF0AFEF0CF0B2EFE7
:10195C000CF03206D8A03306000E3F6E1F0E3E6E02
:10196C00000EB76F36EF0DF03E06D8A03F06980E6E
:10197C003E24D96E000E3F20DA6E36C001F037C01F
:10198C0002F038C003F039C004F03AC005F03BC097
:10199C0006F03CC007F03DC008F00A0E096E000EC0
:1019AC000A6E000E0B6E000E0C6E000E0D6E000E0D
:1019BC000E6E000E0F6E000E106E6BEC13F001C06D
:1019CC0026F002C027F003C028F004C029F005C09F
:1019DC002AF006C02BF007C02CF008C02DF026C052
:1019EC0013F028C014F0ABEC18F01350300FDF6E6E
:1019FC003006D8A031063206D8A0330636C001F026
:101A0C0037C002F038C003F039C004F03AC005F01A
:101A1C003BC006F03CC007F03DC008F00A0E096E52
:101A2C00000E0A6E000E0B6E000E0C6E000E0D6E8C
:101A3C00000E0E6E000E0F6E000E106EE4EC11F028
:101A4C0001C036F002C037F003C038F004C039F0E2
:101A5C0005C03AF006C03BF007C03CF008C03DF0B2
:101A6C003FBE41EF0DF03F5008E13E04D8A041EFDE
:101A7C000DF043EF0DF074EF0DF0365037103810B9
:101A8C0039103A103B103C103D10D8A450EF0DF01B
:101A9C0052EF0DF0BAEF0CF031BE5FEF0DF031509C
:101AAC0006E13004D8B05DEF0DF05FEF0DF0BAEF4A
:101ABC000CF033BE6AEF0DF0335008E13204D8A0BD
:101ACC006AEF0DF06CEF0DF074EF0DF0000192B3B6
:101ADC0072EF0DF074EF0DF0BAEF0CF034503510CE
:101AEC00D8A47BEF0DF07DEF0DF085EF0DF000012C
:101AFC0092A583EF0DF085EF0DF0A3EF0DF03E06F0
:101B0C00D8A03F0634503510D8A48FEF0DF091EFCC
:101B1C000DF097EF0DF0000E2F6E2B0E2E6E9BEF2F
:101B2C000DF0000E2F6E2D0E2E6E980E3E24D96EDB
:101B3C00000E3F20DA6E2EC0DFFF1CC011F01DC05E
:101B4C0012F0980E3E24136E000E3F20146E32C01D
:101B5C0015F033C016F045EC17F011C01CF012C094
:101B6C001DF01200000191BFBEEF0DF0C0EF0DF0A3
:101B7C00C1EF0DF0929391BFCEEF0DF0915106E1B4
:101B8C009005D8B0CCEF0DF0CEEF0DF0D4EF0DF0FA
:101B9C00000E346E010E336ED8EF0DF090C033F0A2
:101BAC0091C034F08EC035F08FC036F092A9E1EFC1
:101BBC000DF0E3EF0DF0E7EF0DF0FE0E3526FF0E06
:101BCC0036221EC037F01FC038F020C039F021C0BB
:101BDC003AF022C03BF023C03CF024C03DF025C0BD
:101BEC003EF0000E406E1F0E3F6E000EB76FB2EF50
:101BFC000EF03F06D8A040060F0E3714416E426A15
:101C0C0042BE12EF0EF0425009E10A0E415CD8A020
:101C1C0012EF0EF014EF0EF01CEF0EF0570E4124E5
:101C2C00416E000E4220426E22EF0EF0300E412427
:101C3C00416E000E4220426EBF0E276EFF0E286EC4
:101C4C002650296E2A6A2750292628502A222A50E3
:101C5C000AE11A0E295CD8A036EF0EF039EF0EF01F
:101C6C00010E3AEF0EF0000E2F6E306A2F5030102E
:101C7C00D8B443EF0EF045EF0EF075EF0EF09F0E5B
:101C8C00276EFF0E286E200E4110296E000E42109A
:101C9C002A6E2750292628502A222A500AE11A0E89
:101CAC00295CD8A05CEF0EF05FEF0EF0010E60EF38
:101CBC000EF0000E316E326A31503210D8B469EF2A
:101CCC000EF06BEF0EF075EF0EF041C007F042C056
:101CDC0008F0D9EC17F007C041F008C042F0980E9C
:101CEC003F24D96E000E4020DA6E41C0DFFF330670
:101CFC00D8A034063506D8A0360637C027F038C031
:101D0C0028F039C029F03AC02AF03BC02BF03CC077
:101D1C002CF03DC02DF03EC02EF0050E9FEF0EF0C6
:101D2C00D8902E322D322C322B322A3229322832B4
:101D3C002732E82E96EF0EF027C037F028C038F087
:101D4C0029C039F02AC03AF02BC03BF02CC03CF033
:101D5C002DC03DF02EC03EF040BEBEEF0EF0405008
:101D6C0009E1020E3F5CD8A0BEEF0EF0C0EF0EF002
:101D7C00F1EF0EF03750381039103A103B103C1080
:101D8C003D103E10D8A4CDEF0EF0CFEF0EF0FFEFCC
:101D9C000DF034BEDCEF0EF0345006E13304D8B055
:101DAC00DAEF0EF0DCEF0EF0FFEF0DF036BEE7EFE2
:101DBC000EF0365008E13504D8A0E7EF0EF0E9EF4D
:101DCC000EF0F1EF0EF0000192B3EFEF0EF0F1EF29
:101DDC000EF0FFEF0DF0000192A9F7EF0EF0F9EF06
:101DEC000EF00FEF0FF03F06D8A04006980E3F24E0
:101DFC00D96E000E4020DA6E26C0DFFF3F06D8A059
:101E0C004006980E3F24D96E000E4020DA6E300E3C
:101E1C00DF6E1CC011F01DC012F0980E3F24136E23
:101E2C00000E4020146E35C015F036C016F045EC8F
:101E3C0017F011C01CF012C01DF01200000191BF70
:101E4C002AEF0FF02CEF0FF02DEF0FF0929391BFC4
:101E5C003AEF0FF0915106E19005D8B038EF0FF042
:101E6C003AEF0FF040EF0FF0000E2F6E010E2E6EBA
:101E7C0044EF0FF090C02EF091C02FF08EC030F0D8
:101E8C008FC031F01EC032F01FC033F020C034F0D0
:101E9C0021C035F022C036F023C037F024C038F012
:101EAC0025C039F0000E3B6E1F0E3A6E000EB76F58
:101EBC00D6EF0FF03A06D8A03B06980E3A24D96E0E
:101ECC00000E3B20DA6E32C001F033C002F034C099
:101EDC0003F035C004F036C005F037C006F038C04A
:101EEC0007F039C008F00A0E096E000E0A6E000EDB
:101EFC000B6E000E0C6E000E0D6E000E0E6E000EB4
:101F0C000F6E000E106E78EC16F001C026F002C0B9
:101F1C0027F003C028F004C029F005C02AF006C041
:101F2C002BF007C02CF008C02DF02650300FDF6EC0
:101F3C002E06D8A02F063006D8A0310632C001F0EC
:101F4C0033C002F034C003F035C004F036C005F0E5
:101F5C0037C006F038C007F039C008F00A0E096E19
:101F6C00000E0A6E000E0B6E000E0C6E000E0D6E47
:101F7C00000E0E6E000E0F6E000E106E25EC15F09E
:101F8C0001C032F002C033F003C034F004C035F0AD
:101F9C0005C036F006C037F007C038F008C039F07D
:101FAC003A503B10D8B4DDEF0FF0DFEF0FF010EF2D
:101FBC0010F03250331034103510361037103810F2
:101FCC003910D8A4ECEF0FF0EEEF0FF060EF0FF03C
:101FDC002FBEFBEF0FF02F5006E12E04D8B0F9EF17
:101FEC000FF0FBEF0FF060EF0FF031BE06EF10F0CB
:101FFC00315008E13004D8A006EF10F008EF10F0D3
:10200C0010EF10F0000192B30EEF10F010EF10F083
:10201C0060EF0FF01CC011F01DC012F0980E3A24A6
:10202C00136E000E3B20146E30C015F031C016F04C
:10203C0045EC17F011C01CF012C01DF0120000018D
:10204C0091BF2BEF10F02DEF10F02EEF10F09293BC
:10205C0091BF3BEF10F0915106E19005D8B039EFEC
:10206C0010F03BEF10F041EF10F0000E2F6E010E50
:10207C002E6E45EF10F090C02EF091C02FF08EC058
:10208C0032F08FC033F01EC034F01FC035F020C0CA
:10209C0036F021C037F022C038F023C039F024C00C
:1020AC003AF025C03BF0000E3D6E1F0E3C6E000E4C
:1020BC00B76F000E316E000E306EAAEF10F03C06BA
:1020CC00D8A03D06070E3414306E316A980E3C24AD
:1020DC00D96E000E3D20DA6E3050300FDF6E2E06BA
:1020EC00D8A02F063206D8A0330634C026F035C04F
:1020FC0027F036C028F037C029F038C02AF039C094
:10210C002BF03AC02CF03BC02DF0040E97EF10F0E2
:10211C00D8902D322C322B322A32293228322732C7
:10212C002632E82E8EEF10F026C034F027C035F0A2
:10213C0028C036F029C037F02AC038F02BC039F04F
:10214C002CC03AF02DC03BF03DBEB5EF10F03D5029
:10215C0008E13C04D8A0B5EF10F0B7EF10F0E8EFB1
:10216C0010F03450351036103710381039103A1032
:10217C003B10D8A4C4EF10F0C6EF10F065EF10F0D0
:10218C002FBED3EF10F02F5006E12E04D8B0D1EFB4
:10219C0010F0D3EF10F065EF10F033BEDEEF10F05F
:1021AC00335008E13204D8A0DEEF10F0E0EF10F06D
:1021BC00E8EF10F0000192B3E6EF10F0E8EF10F04A
:1021CC0065EF10F0000192A9EEEF10F0F0EF10F0B7
:1021DC0007EF11F030503110D8B4F7EF10F0F9EFE1
:1021EC0010F007EF11F03C06D8A03D06980E3C24E9
:1021FC00D96E000E3D20DA6E300EDF6E3206D8A09E
:10220C0033061CC011F01DC012F0980E3C24136E46
:10221C00000E3D20146E32C015F033C016F045ECA4
:10222C0017F011C01CF012C01DF01200000E166E3B
:10223C00000E156E000E0F6E000E0E6E28EF11F0D4
:10224C00084A092A010E146E08C0F6FF09C0F7FFF0
:10225C000800F550200AD8B436EF11F038EF11F021
:10226C0055EF11F0F70E0A6EFF0E0B6E08C0F6FF5D
:10227C0009C0F7FF0800F5500C6E0D6A0A500C26C9
:10228C000B500D220D5009E1050E0C5CD8A051EF3E
:10229C0011F053EF11F055EF11F0000E146E14C045
:1022AC0010F0116A10501110D8A45FEF11F061EF0B
:1022BC0011F026EF11F06BEF11F0000E0F6E010E06
:1022CC000E6E084A092AA0EF11F008C0F6FF09C0EB
:1022DC00F7FF0800F5500A6E0B6A0B50000AD8B4D1
:1022EC007AEF11F0A0EF11F00A502B0AD8B467EF77
:1022FC0011F0060AD8B463EF11F0A0EF11F015C07D
:10230C0001F016C002F0000E046E0A0E036E8BEC88
:10231C0019F008C0F6FF09C0F7FF0800F550015E80
:10232C00000E025A300E0124156E000E0220166E9D
:10233C0067EF11F0D00E0A6EFF0E0B6E08C0F6FFA1
:10234C0009C0F7FF0800F5500C6E0D6A0A500C26F8
:10235C000B500D220D500AE10A0E0C5CD8A0B9EFFF
:10236C0011F0BCEF11F0010EBDEF11F0000E126E6A
:10237C00136A12501310D8A4C6EF11F0C8EF11F065
:10238C0085EF11F00E500F10D8A4CFEF11F0D1EF54
:10239C0011F0DFEF11F015C00AF016C00BF00A1E99
:1023AC000B1E0A4A0B2A0AC008F00BC009F0E3EF17
:1023BC0011F015C008F016C009F01200000E126ED4
:1023CC0010BEEDEF11F0EBEF11F0FFEF11F0101E5E
:1023DC000F1E0E1E0D1E0C1E0B1E0A1E096C000E6F
:1023EC000A220B220C220D220E220F221022010E89
:1023FC00126E08BE06EF12F004EF12F018EF12F096
:10240C00081E071E061E051E041E031E021E016C5E
:10241C00000E022203220422052206220722082291
:10242C00010E121A20EE13F0070EDE6AE806FDE22A
:10243C0009500A100B100C100D100E100F1010106C
:10244C00D8B42BEF12F02DEF12F07FEF12F0010E3B
:10245C00116E3BEF12F0D89009360A360B360C365B
:10246C000D360E360F361036112A10AE40EF12F024
:10247C0042EF12F031EF12F0D890133614361536B5
:10248C0016361736183619361A360950015C0A50AA
:10249C0002580B5003580C5004580D5005580E5050
:1024AC0006580F50075810500858D8A060EF12F07B
:1024BC0062EF12F073EF12F00950015E0A50025AEB
:1024CC000B50035A0C50045A0D50055A0E50065A14
:1024DC000F50075A1050085A1380D89010320F32F0
:1024EC000E320D320C320B320A320932112E42EFFF
:1024FC0012F01250D8B485EF12F087EF12F097EF6C
:10250C0012F01A1E191E181E171E161E151E141E4A
:10251C00136C000E142215221622172218221922CF
:10252C001A2213C001F014C002F015C003F016C03B
:10253C0004F017C005F018C006F019C007F01AC057
:10254C0008F0120020EEE6F010EE0FF0060EDBCFD6
:10255C00E3FFE806FCE20CC01AF00DC01BF01A50A9
:10256C001B10D8A4BCEF12F0BEEF12F0C2EF12F0A9
:10257C000F0E1A6E000E1B6E1AC001F01BC002F07B
:10258C0058EC19F001C01EF002C01FF090C01CF0F6
:10259C0091C01DF01DBED5EF12F0D7EF12F0ECEF8D
:1025AC0012F01E501C5C1D50800A0E6E1F50800ACB
:1025BC000E58D8A0E4EF12F0E6EF12F0E8EF12F0AC
:1025CC00ECEF12F01CC01EF01DC01FF01EC01CF062
:1025DC001FC01DF08EC018F08FC019F0000192B111
:1025EC00FAEF12F0FCEF12F019EF13F00AEF13F000
:1025FC00000E026E200E016E0AC003F00BC004F038
:10260C00E0EC16F01E4A1F2A18501E5C1F50800A60
:10261C000E6E1950800A0E58D8A017EF13F019EF50
:10262C0013F0FEEF12F0000E176E000E166E32EF66
:10263C0013F01AC0D9FF1BC0DAFFDF500E6E0E501C
:10264C00016E026A0AC003F00BC004F0E0EC16F055
:10265C001A4A1B2A164A172A1C50165C1750800A55
:10266C000E6E1D50800A0E58D8A03FEF13F041EFAC
:10267C0013F01FEF13F0000192A147EF13F049EF95
:10268C0013F066EF13F057EF13F0000E026E200EEE
:10269C00016E0AC003F00BC004F0E0EC16F01E4A09
:1026AC001F2A18501E5C1F50800A0E6E1950800A8B
:1026BC000E58D8A064EF13F066EF13F04BEF13F045
:1026CC001EC00AF01FC00BF01200000E126E08BEE6
:1026DC0074EF13F072EF13F086EF13F0081E071E61
:1026EC00061E051E041E031E021E016C000E022295
:1026FC00032204220522062207220822010E126E52
:10270C0010BE8DEF13F08BEF13F09DEF13F0101E36
:10271C000F1E0E1E0D1E0C1E0B1E0A1E096C000E2B
:10272C000A220B220C220D220E220F2210220950FB
:10273C000A100B100C100D100E100F101010D8B436
:10274C00AAEF13F0ACEF13F0F4EF13F0010E116ECF
:10275C00BAEF13F0D89009360A360B360C360D3614
:10276C000E360F361036112A10AEBFEF13F0C1EF34
:10277C0013F0B0EF13F00950015C0A5002580B50E3
:10278C0003580C5004580D5005580E5006580F5055
:10279C00075810500858D8A0D6EF13F0D8EF13F004
:1027AC00E8EF13F00950015E0A50025A0B50035A1D
:1027BC000C50045A0D50055A0E50065A0F50075A19
:1027CC001050085AD89010320F320E320D320C3293
:1027DC000B320A320932112EC1EF13F01250D8B459
:1027EC00FAEF13F0FCEF13F00CEF14F0081E071EB9
:1027FC00061E051E041E031E021E016C000E022284
:10280C0003220422052206220722082201C001F01D
:10281C0002C002F003C003F004C004F005C005F0D0
:10282C0006C006F007C007F008C008F01200800EC2
:10283C00735CD8A024EF14F026EF14F02FEF14F0F3
:10284C00000E0001956F4B0E946F70687168AAEFC3
:10285C0014F070C0BCF071C0BDF0735009E1020EF1
:10286C00725CD8A03CEF14F03EEF14F04BEF14F078
:10287C00FF0E72240001C06FFF0E7320C16F000E9B
:10288C00BF6F000EBE6F54EF14F0000E0001C16F4D
:10289C00010EC06F000EBF6F010EBE6FBC0E686ED6
:1028AC00000E696E74C06AF075C06BF076C06CF087
:1028BC0077C06DF0A8EC17F068C0BAF069C0BBF037
:1028CC0072507310D8B46DEF14F06FEF14F0A6EFD4
:1028DC0014F00001BBBF75EF14F077EF14F0A6EF06
:1028EC0014F0FF0E786EFF0E796E72C07AF073C022
:1028FC007BF078507A2679507B227A50BA5DBB51A6
:10290C00800A7C6E7B50800A7C58D8A090EF14F023
:10291C0092EF14F09AEF14F0FF0E7224B86FFF0EC2
:10292C007320B96F9EEF14F0BAC0B8F0BBC0B9F009
:10293C00B8517024D96EB9517120DA6E000EDF6E69
:10294C00BAC070F0BBC071F01200000E0001E56F50
:10295C00000EE46FC3EC19F0CDEC19F0800E016E93
:10296C00250E026E000E036EB9EC19F09EEC19F0F8
:10297C00010E026E060E036E08EC18F0060E7E6E4B
:10298C00130E7D6EAE0EE82EFED77D2EFCD77E2E5E
:10299C00FAD79392060E7E6E130E7D6EAE0EE82E57
:1029AC00FED77D2EFCD77E2EFAD79382000E60ECDC
:1029BC0018F001C0E2F002C0E3F0CE0E0001C26FCD
:1029CC00000EC36F000EC56F140EC46F1F0EC66FC2
:1029DC00060EC76FE2C0C8F0E3C0C9F073EC19F083
:1029EC00CE0E026E000E036E08EC18F0060E7E6E14
:1029FC00130E7D6EAE0EE82EFED77D2EFCD77E2EEE
:102A0C00FAD7010E60EC18F001C0E4F002C0E5F05A
:102A1C00CE0E0001C26F000EC36F000EC56F140EF8
:102A2C00C46F140EC66F060EC76FE4C0C8F0E5C0C5
:102A3C00C9F073EC19F0BEEF14F000EF00F020EECB
:102A4C0011F0070EDE6AE806FDE209500A100B10C1
:102A5C000C100D100E100F101010D8B438EF15F01C
:102A6C003AEF15F08CEF15F0010E196E48EF15F0DA
:102A7C00D89009360A360B360C360D360E360F3614
:102A8C001036192A10AE4DEF15F04FEF15F03EEF42
:102A9C0015F0D89011361236133614361536163604
:102AAC00173618360950015C0A5002580B5003585F
:102ABC000C5004580D5005580E5006580F5007581E
:102ACC0010500858D8A06DEF15F06FEF15F080EF8F
:102ADC0015F00950015E0A50025A0B50035A0C5063
:102AEC00045A0D50055A0E50065A0F50075A1050E2
:102AFC00085A1180D89010320F320E320D320C322F
:102B0C000B320A320932192E4FEF15F011C001F0B9
:102B1C0012C002F013C003F014C004F015C005F08D
:102B2C0016C006F017C007F018C008F0120001C05C
:102B3C0008F002C009F003C00AF004C00BF005064F
:102B4C00D8A00606052806E10628D8A4B0EF15F093
:102B5C00B2EF15F0BFEF15F0000E026E000E016E15
:102B6C000BEF16F0084A092A0A4A0B2A0506D8A0C8
:102B7C00060608C0F6FF09C0F7FF0800F55000096B
:102B8C00D8B4CBEF15F0CDEF15F0F9EF15F00AC076
:102B9C00F6FF0BC0F7FF0800F5500009D8B4D9EFC9
:102BAC0015F0DBEF15F0F9EF15F005500610D8B461
:102BBC00E2EF15F0E4EF15F0F9EF15F008C0F6FFB1
:102BCC0009C0F7FF0800F5CF07F00AC0F6FF0BC0ED
:102BDC00F7FF0800F5500718D8B4F7EF15F0F9EF28
:102BEC0015F0B8EF15F008C0F6FF09C0F7FF0800A4
:102BFC00F5CF07F00AC0F6FF0BC0F7FF0800F55041
:102C0C00075C016E026AD8A00206120000018E5108
:102C1C008F11D8A414EF16F016EF16F01CEF16F067
:102C2C008EC010F08FC011F022EF16F0FF0E8E2523
:102C3C00106EFF0E8F21116E92A127EF16F029EF67
:102C4C0016F032EF16F00CC001F0026A0AC003F065
:102C5C000BC004F0E0EC16F011BE37EF16F039EFB4
:102C6C0016F03BEF16F03FEF16F0000E116E000E53
:102C7C00106E000E0F6E000E0E6E51EF16F0000E61
:102C8C00026E200E016E0AC003F00BC004F0E0ECE3
:102C9C0016F00E4A0F2A10500E5C0F50800A0D6E63
:102CAC001150800A0D58D8A05EEF16F060EF16F0A8
:102CBC0045EF16F0000192B166EF16F068EF16F0D2
:102CCC0071EF16F00CC001F0026A0AC003F00BC0E1
:102CDC0004F0E0EC16F0010E0E240A6E000E0F202C
:102CEC000B6E120009500A100B100C100D100E1068
:102CFC000F101010D8B485EF16F087EF16F0CFEF49
:102D0C0016F0010E116E95EF16F0D89009360A36B2
:102D1C000B360C360D360E360F361036112A10AE19
:102D2C009AEF16F09CEF16F08BEF16F00950015C41
:102D3C000A5002580B5003580C5004580D500558AB
:102D4C000E5006580F50075810500858D8A0B1EF25
:102D5C0016F0B3EF16F0C3EF16F00950015E0A50EF
:102D6C00025A0B50035A0C50045A0D50055A0E506F
:102D7C00065A0F50075A1050085AD89010320F327A
:102D8C000E320D320C320B320A320932112E9CEFFC
:102D9C0016F001C001F002C002F003C003F004C041
:102DAC0004F005C005F006C006F007C007F008C027
:102DBC0008F0120003500410D8B4E7EF16F0E9EF56
:102DCC0016F0F2EF16F003500410D8A4F0EF16F042
:102DDC00F2EF16F0F7EF16F00150D0EC19F044EFCB
:102DEC0017F020EE04F00350D9260450DA22DE50FE
:102DFC00DE10D8B404EF17F006EF17F021EF17F040
:102E0C0020EE04F00350D9260450DA2210EE02F022
:102E1C000350E1260450E222DE50E65CE650800AC4
:102E2C00096EDE50800A0958D8B01FEF17F021EF59
:102E3C0017F044EF17F020EE02F00350D92604509F
:102E4C00DA22DECF05F0DDCF06F003C0D9FF04C0D7
:102E5C00DAFFDECF07F0DDCF08F005500724D96E7E
:102E6C0006500820DA6E01C0DFFF20EE02F003509E
:102E7C00D9260450DA22DE2A000EDD2212000001CF
:102E8C0092A14BEF17F04DEF17F057EF17F013C05F
:102E9C000AF014C00BF011C00CF012C00DF089EC4C
:102EAC0018F016BE5CEF17F05EEF17F064EF17F03A
:102EBC0015C01AF016C01BF068EF17F0000E1B6E51
:102ECC00000E1A6E000E196E000E186E7AEF17F0C7
:102EDC00000E026E200E016E11C003F012C004F041
:102EEC00E0EC16F0184A192A1A50185C1950800A8E
:102EFC00176E1B50800A1758D8A087EF17F089EF70
:102F0C0017F06EEF17F0000192B18FEF17F091EF01
:102F1C0017F09BEF17F013C00AF014C00BF011C0A0
:102F2C000CF012C00DF089EC18F013C001F014C0B5
:102F3C0002F058EC19F01A500124116E1B500220AB
:102F4C00126E12006AC06EF06BC06FF0000E0001C2
:102F5C008D6F000E8C6FC6EF17F068C043F069C020
:102F6C0044F06E0E456E000E466E6CC047F06DC0A0
:102F7C0048F02EEC03F0435000018C2744508D2375
:102F8C006EC0F6FF6FC0F7FF0800F5500009D8A41B
:102F9C00D2EF17F0D4EF17F0B3EF17F08CC068F046
:102FAC008DC069F012009F0E096EFF0E0A6E07C0ED
:102FBC000BF008C00CF009500B260A500C220C50D8
:102FCC000AE11A0E0B5CD8A0EEEF17F0F1EF17F038
:102FDC00010EF2EF17F0000E0D6E0E6A0D500E1072
:102FEC00D8B4FBEF17F0FDEF17F003EF18F05F0EFE
:102FFC000714076E086A07EF18F007C007F008C03F
:10300C0008F012001EEF18F002C0F6FF03C0F7FF25
:10301C00F86A050EF76403D00800F55005D0F6CF1A
:10302C00E1FFF7CFE2FFE750AEEC19F0024A032ABA
:10303C0002C0F6FF03C0F7FFF86A050EF76403D071
:10304C000800F55005D0F6CFE1FFF7CFE2FFE750CF
:10305C000009D8A434EF18F036EF18F00AEF18F086
:10306C001200010E076E200E01180210D8B441EFA9
:10307C0018F043EF18F05CEF18F0F70E036EFF0E2C
:10308C00046E01C005F002C006F003500526045082
:10309C000622065009E1050E055CD8A058EF18F081
:1030AC005AEF18F05CEF18F0000E076E07C001F035
:1030BC00026A1200056E0550D8A467EF18F069EF8C
:1030CC0018F06DEF18F0C30EC21671EF18F0C25065
:1030DC00C30B0409C26EC282C2B277EF18F079EF4B
:1030EC0018F072EF18F0C350C4CF03F0046A03C099
:1030FC0004F0036A0310066E0450076E06C001F05C
:10310C0007C002F01200000E106E000E0F6E9AEF48
:10311C0018F00EC001F0026A0CC003F00DC004F0F0
:10312C00E0EC16F00F4A102A0F500A24D96E1050FA
:10313C000B20DA6EDF500E6E0E50D8A4A8EF18F0EC
:10314C00AAEF18F08FEF18F0120014BEB8EF18F0B9
:10315C00145006E11304D8B0B6EF18F0B8EF18F01D
:10316C00C6EF18F013C015F014C016F0151E161E7D
:10317C00154A162A15C013F016C014F0CAEF18F031
:10318C0013C013F014C014F012009F0E036EFF0E48
:10319C00046E200E0110056E000E0210066E035018
:1031AC0005260450062206500AE11A0E055CD8A02A
:1031BC00E2EF18F0E5EF18F0010EE6EF18F0000E54
:1031CC00016E026A12009F0E036EFF0E046E01C0A8
:1031DC0005F002C006F003500526045006220650E6
:1031EC000AE11A0E055CD8A0FEEF18F001EF19F0F9
:1031FC00010E02EF19F0000E016E026A1200BF0EF2
:10320C00036EFF0E046E01C005F002C006F0035001
:10321C0005260450062206500AE11A0E055CD8A0B9
:10322C001AEF19F01DEF19F0010E1EEF19F0000E38
:10323C00016E026A1200D00E036EFF0E046E01C006
:10324C0005F002C006F00350052604500622065075
:10325C000AE10A0E055CD8A036EF19F039EF19F027
:10326C00010E3AEF19F0000E016E026A1200920E76
:10327C00F66E330EF76E000EF86E00EEE6F010EE02
:10328C0007F00900F5CFEEFFE550E150FAE100EE52
:10329C0080F0380EEE6AE806FDE1000EF86E0001D3
:1032AC00ABEF14F001C003F002C004F060EF19F0B2
:1032BC00014A022A01C0D9FF02C0DAFFDF50D8A4AC
:1032CC006AEF19F06CEF19F05EEF19F00350015C26
:1032DC00016E04500258026E1200C80E0001CC6F31
:1032EC00000ECD6FC2C070F0C3C071F0C4C072F0DC
:1032FC00C5C073F0C6C074F0C7C075F0CC0E766E46
:10330C00000E776E1DEC14F0120001500302F3CF87
:10331C0005F0F4CF06F001500402F35006260250DB
:10332C000302F350062605C001F006C002F012009D
:10333C009282C150F00B0D09C16EC198C19AC05058
:10334C00F80B0609C06E380EC012C08EC280120077
:10335C00016E9EA8B4EF19F0B6EF19F0AFEF19F0AB
:10336C0001C0ADFF1200AC8AAC98AC94B896AB8E91
:10337C00000EB06E0C0EAF6E1200700ED312D39EF8
:0D338C00030ED3121200286E756C6C290020
:08339A00948C948E12001200C5
:020000040020DA
:08000000FFFFFFFFFFFFFFFF00
:020000040030CA
:0E000000FF091F1EFF8385FF0FC00FE00F409A
:00000001FF
