:020000040000FA
:04000000A0EF05F078
:100600000001000A006400E80310274461766520B9
:1006100069732061206C6567656E64210A00485526
:100620004D49443A2025750A0054454D503A20253D
:10063000750A0000110E146E000E156EB4EF03F073
:10064000250E1918D8B427EF03F029EF03F033EF84
:1006500003F00DC0D9FF0EC0DAFF19C0DFFF0D4A4D
:100660000E2AB4EF03F0000E136E3BEF03F0C00E42
:1006700013124FEF03F00FC0F6FF10C0F7FF0F4A41
:10068000102A0800F5CF19F01950000AD8B4C5EFA8
:1006900003F0750AD8B437EF03F0B4EF03F014C0D9
:1006A000D9FF15C0DAFFDECF16F0DDCF17F0020E4E
:1006B0001426000E1522010E196E1950020D010E9E
:1006C000F324F66E060EF420F76E0900F550165C62
:1006D0000900F5501758D8B070EF03F072EF03F02F
:1006E00074EF03F07EEF03F0192A050E1918D8A451
:1006F0007CEF03F07EEF03F05DEF03F019C018F01C
:10070000ABEF03F01850020D010EF324F66E060E47
:10071000F420F76E0900F5CF03F00A00F5CF04F0DE
:1007200016C001F017C002F07DEC04F001C008F023
:1007300002C009F0000E0B6E0A0E0A6EB7EC04F050
:100740000850300F196E0DC0D9FF0EC0DAFF19C066
:10075000DFFF0D4A0E2A18061828D8A4B2EF03F0BE
:10076000B4EF03F082EF03F00FC0F6FF10C0F7FF05
:100770000F4A102A0800F5CF19F01950D8A4C3EF7A
:1007800003F0C5EF03F020EF03F00DC0D9FF0EC05A
:10079000DAFF000EDF6E1200000E336E000E326EB6
:1007A000C0EC05F0D3EC05F0250E026E800E016E54
:1007B000B6EC05F082EC05F093EC05F0060E1B6E2E
:1007C000130E1A6EAE0EE82EFED71A2EFCD71B2E75
:1007D000FAD79392060E1B6E130E1A6EAE0EE82E0B
:1007E000FED71A2EFCD71B2EFAD793820B0E026E61
:1007F000060E036E1AEC05F0000EE9EC04F001C0E1
:1008000030F002C031F01C0E0D6E000E0E6E290E7F
:100810000F6E060E106E30C011F031C012F01AECDF
:1008200003F01C0E026E000E036E1AEC05F0020EB1
:100830001B6E040E1A6EBA0EE82EFED71A2EFCD7C7
:100840001B2EFAD700D0010EE9EC04F001C032F003
:1008500002C033F01C0E0D6E000E0E6E1E0E0F6EDB
:10086000060E106E32C011F033C012F01AEC03F015
:100870001C0E026E000E036E1AEC05F0020E1B6ECB
:10088000040E1A6EBA0EE82EFED71A2EFCD71B2EB7
:10089000FAD700D0CFEC05F0000E036EDE0E026E2C
:1008A000C6EC05F0000E036E000E026EC6EC05F0FD
:1008B000CBEC05F00D0E1A6EFC0EE82EFED71A2EAC
:1008C000FCD7000E036EDF0E026EC6EC05F0CBEC1B
:1008D00005F00D0E1A6EFC0EE82EFED71A2EFCD770
:1008E0000D0E1A6EFC0EE82EFED71A2EFCD771ECF8
:1008F00005F0DEEF03F000EF00F0000E066E000ED4
:10090000056E03500410D8B488EF04F08AEF04F0A9
:10091000B2EF04F0010E076E92EF04F0D8900336A8
:100920000436072A04AE97EF04F099EF04F08EEF37
:1009300004F0D890053606360350015C0450025886
:10094000D8A0A5EF04F0A7EF04F0ACEF04F003503B
:10095000015E0450025A0580D89004320332072EFB
:1009600099EF04F005C001F006C002F012000A5031
:100970000B10D8B4BEEF04F0C0EF04F0E4EF04F0C5
:10098000010E0C6EC8EF04F0D8900A360B360C2A14
:100990000BAECDEF04F0CFEF04F0C4EF04F00A503B
:1009A000085C0B500958D8A0D8EF04F0DAEF04F037
:1009B000DEEF04F00A50085E0B50095AD8900B3253
:1009C0000A320C2ECFEF04F008C008F009C009F07D
:1009D0001200076E0750D8A4F0EF04F0F2EF04F015
:1009E000F6EF04F0C250C30B0409C26E0704D8A48A
:1009F000FCEF04F0FEEF04F002EF05F0C250C30B71
:100A00000809C26EC282C2B208EF05F00AEF05F013
:100A100003EF05F0C350C4CF03F0046A03C004F031
:100A2000036A0310056E0450066E05C001F006C08F
:100A300002F0120030EF05F002C0F6FF03C0F7FF2E
:100A4000F86A050EF76403D00800F55005D0F6CF1C
:100A5000E9FFF7CFEAFFEF50ABEC05F0024A032ABB
:100A600002C0F6FF03C0F7FFF86A050EF76403D073
:100A70000800F55005D0F6CFE9FFF7CFEAFFEF50B9
:100A80000009D8A446EF05F048EF05F01CEF05F08B
:100A900012005EEC05F0C5865EEC05F0C9505EEC18
:100AA00005F002500310D8B458EF05F05BEF05F0E5
:100AB000C58A5CEF05F0C59AC5881200C7B463EF1C
:100AC00005F065EF05F05EEF05F0C5CF01F01F0EF4
:100AD0000116D8A46EEF05F070EF05F05EEF05F09B
:100AE0001200CFEC05F0000E036EDF0E026EC6ECB6
:100AF00005F0000E036E000E026E49EC05F0CBEC23
:100B000005F0120092829284C150F00B0C09C16E64
:100B1000C198C19AC050F80B0609C06E380EC012B9
:100B2000C08EC280120094869488130EC86E000E88
:100B3000C76EC68AC650F00B0809C66E9E96120094
:100B400000EE34F00E0EEE6AE806FDE1000EF86EDF
:100B50000001CCEF03F0016E9EA8B1EF05F0B3EFFA
:100B600005F0ACEF05F001C0ADFF1200AC8AAC9807
:100B7000AC94B896AB8E000EB06E0C0EAF6E120039
:100B8000700ED312D39E030ED31212005EEC05F04A
:100B900002C0C9FF12005EEC05F0C58412005EECD5
:0C0BA00005F0C5801200948C948E1200A9
:020000040020DA
:08000000FFFFFFFFFFFFFFFF00
:020000040030CA
:0E000000FF091F1EFF8385FF0FC00FE00F409A
:00000001FF
