:020000040000FA
:0400000051EF18F0B4
:1006000000446176652069732061206C6567656EC2
:1006100064210A004144433A2025750A006868585D
:1006200000686864006868690068686E0068686FE0
:100630000068687500686878007A58007A64007A03
:0F06400069007A6E007A6F007A75007A78000090
:1006500045C0D9FF46C0DAFFDECFF6FFDDCFF7FF9A
:100660000800F550250AD8A438EF03F03AEF03F05C
:1006700025EF0CF045C0D9FF46C0DAFFDE2A000E98
:10068000DD22000E00018F6F000E8E6F8EC092F083
:100690008FC093F090699169000E506E000E4F6EFE
:1006A0009DEF03F00001928145C0D9FF46C0DAFFFB
:1006B000DE2A000EDD229DEF03F00001928354EF4D
:1006C00003F00001928554EF03F00001928754EF8C
:1006D00003F00001928954EF03F0000E506E010EFA
:1006E0004F6E9DEF03F045C0D9FF46C0DAFFDECF65
:1006F000F6FFDDCFF7FF0800F550496E4A6A4A5011
:10070000000AD8B486EF03F06DEF03F04950200AD9
:10071000D8B465EF03F0030AD8B469EF03F0080A10
:10072000D8B461EF03F0060AD8B452EF03F01D0A03
:10073000D8B45DEF03F06DEF03F04F505010D8B414
:10074000A4EF03F0A6EF03F073EF03F0000192A112
:10075000ACEF03F0AEEF03F0AFEF03F0929345C0C0
:10076000D9FF46C0DAFFDECFF6FFDDCFF7FF080086
:10077000F5502A0AD8A4BFEF03F0C1EF03F0EAEF67
:1007800003F045C0D9FF46C0DAFFDE2A000EDD22A5
:1007900047C0D9FF48C0DAFFDFCF49F0020EDE269E
:1007A000DFCF4AF0000EDD2249C0D9FF4AC0DAFF90
:1007B000DECF8EF0DDCF8FF08FBFE3EF03F0E1EF00
:1007C00003F02DEF04F092818E6D8F1FD8B08F2B28
:1007D0002DEF04F045C0D9FF46C0DAFFDECF08F0A8
:1007E000DDCF09F016EC11F008C08EF009C08FF0D3
:1007F00001EF04F045C0D9FF46C0DAFFDE2A000E43
:10080000DD22D00E496EFF0E4A6E45C0D9FF46C0AC
:10081000DAFFDECFF6FFDDCFF7FF0800F5504B6EB5
:100820004C6A49504B264A504C224C500AE10A0E61
:100830004B5CD8A01EEF04F021EF04F0010E22EF74
:1008400004F0000E516E526A51505210D8A42BEF92
:1008500004F02DEF04F0FAEF03F045C0D9FF46C0D5
:10086000DAFFDECFF6FFDDCFF7FF0800F5502E0AE6
:10087000D8A43DEF04F03FEF04F0BDEF04F0000E0C
:100880000001916F000E906F45C0D9FF46C0DAFF9E
:10089000DE2A000EDD2245C0D9FF46C0DAFFDECFDA
:1008A000F6FFDDCFF7FF0800F5502A0AD8A45BEF6A
:1008B00004F05DEF04F07AEF04F045C0D9FF46C0C4
:1008C000DAFFDE2A000EDD2247C0D9FF48C0DAFF7A
:1008D000DFCF49F0020EDE26DFCF4AF0000EDD2228
:1008E00049C0D9FF4AC0DAFFDECF90F0DDCF91F0EA
:1008F000BDEF04F045C0D9FF46C0DAFFDECF08F0F7
:10090000DDCF09F016EC11F008C090F009C091F0AD
:1009100091EF04F045C0D9FF46C0DAFFDE2A000E91
:10092000DD22D00E496EFF0E4A6E45C0D9FF46C08B
:10093000DAFFDECFF6FFDDCFF7FF0800F5504B6E94
:100940004C6A49504B264A504C224C500AE10A0E40
:100950004B5CD8A0AEEF04F0B1EF04F0010EB2EFA3
:1009600004F0000E536E546A53505410D8A4BBEFD9
:1009700004F0BDEF04F08AEF04F045C0D9FF46C093
:10098000DAFFDECFF6FFDDCFF7FF0800F550630A90
:10099000D8A4CDEF04F0CFEF04F0F6EF04F045C09B
:1009A000D9FF46C0DAFFDE2A000EDD2247C0D9FF9C
:1009B00048C0DAFFDFCF49F0020EDE26DFCF4AF073
:1009C000000EDD2249C0D9FF4AC0DAFFDF505F6E5A
:1009D00043C00AF044C00BF05FC00CF08CEC15F083
:1009E0000AC043F00BC044F040EF0CF045C0D9FF03
:1009F00046C0DAFFDECF01F0DDCF02F0210E036E3C
:100A0000060E046E000E066E030E056E1DEC15F04C
:100A100001500210D8B40FEF05F011EF05F02CEFE4
:100A200005F045C0D9FF46C0DAFFDECF01F0DDCFCB
:100A300002F0250E036E060E046E000E066E030E07
:100A4000056E1DEC15F001500210D8A42AEF05F038
:100A50002CEF05F06CEF05F0030E45C0D9FF46C042
:100A6000DAFFDE26000EDD2247C0D9FF48C0DAFFDC
:100A7000DFCF49F0020EDE26DFCF4AF0000EDD2286
:100A800049C0D9FF4AC0DAFFDF50556E000E55BE8F
:100A9000FF0E566E576E586E596E5A6E5B6E5C6ED8
:100AA00043C01CF044C01DF055C01EF056C01FF0DE
:100AB00057C020F058C021F059C022F05AC023F08E
:100AC0005BC024F05CC025F041EC0CF01CC043F08E
:100AD0001DC044F040EF0CF045C0D9FF46C0DAFF1E
:100AE000DECF01F0DDCF02F0220E036E060E046EA3
:100AF000000E066E020E056E1DEC15F00150021080
:100B0000D8B485EF05F087EF05F0A2EF05F045C0FA
:100B1000D9FF46C0DAFFDECF01F0DDCF02F0260EAE
:100B2000036E060E046E000E066E020E056E1DECC0
:100B300015F001500210D8A4A0EF05F0A2EF05F0C7
:100B4000C9EF05F0020E45C0D9FF46C0DAFFDE2628
:100B5000000EDD2247C0D9FF48C0DAFFDFCF49F0E1
:100B6000020EDE26DFCF4AF0000EDD2249C0D9FF9B
:100B70004AC0DAFFDECF55F0DDCF56F0000E56BE8C
:100B8000FF0E576E586E596E5A6E5B6E5C6E50EF6C
:100B900005F045C0D9FF46C0DAFFDECFF6FFDDCF56
:100BA000F7FF0800F550640AD8B4D9EF05F0DBEF81
:100BB00005F0EDEF05F045C0D9FF46C0DAFFDECF06
:100BC000F6FFDDCFF7FF0800F550690AD8A4EBEF78
:100BD00005F0EDEF05F013EF06F045C0D9FF46C074
:100BE000DAFFDE2A000EDD2247C0D9FF48C0DAFF57
:100BF000DFCF49F0020EDE26DFCF4AF0000EDD2205
:100C000049C0D9FF4AC0DAFFDECF55F0DDCF56F03C
:100C1000000E56BEFF0E576E586E596E5A6E5B6EC2
:100C20005C6E50EF05F045C0D9FF46C0DAFFDECF5D
:100C300001F0DDCF02F03C0E036E060E046E000ED6
:100C4000066E020E056E1DEC15F001500210D8B4B0
:100C50002CEF06F02EEF06F049EF06F045C0D9FF65
:100C600046C0DAFFDECF01F0DDCF02F03F0E036EAB
:100C7000060E046E000E066E020E056E1DEC15F0DB
:100C800001500210D8A447EF06F049EF06F071EFCB
:100C900006F0020E45C0D9FF46C0DAFFDE26000E80
:100CA000DD2247C0D9FF48C0DAFFDFCF49F0020E8E
:100CB000DE26DFCF4AF0000EDD2249C0D9FF4AC050
:100CC000DAFFDECF4BF0DDCF4CF04BC055F04CC01F
:100CD00056F0576A586A596A5A6A5B6A5C6A50EFFA
:100CE00005F045C0D9FF46C0DAFFDECF01F0DDCF09
:100CF00002F02D0E036E060E046E000E066E030E3D
:100D0000056E1DEC15F001500210D8A48AEF06F014
:100D10008CEF06F0CBEF06F0030E45C0D9FF46C0BE
:100D2000DAFFDE26000EDD2247C0D9FF48C0DAFF19
:100D3000DFCF49F0020EDE26DFCF4AF0000EDD22C3
:100D400049C0D9FF4AC0DAFFDF504B6E4B50606E8E
:100D5000616A626A636A646A656A666A676A43C0EE
:100D60001CF044C01DF060C01EF061C01FF062C0E6
:100D700020F063C021F064C022F065C023F066C09B
:100D800024F067C025F01FEC10F01CC043F01DC01C
:100D900044F040EF0CF045C0D9FF46C0DAFFDECF8B
:100DA00001F0DDCF02F02E0E036E060E046E000E73
:100DB000066E020E056E1DEC15F001500210D8A44F
:100DC000E4EF06F0E6EF06F00EEF07F0020E45C086
:100DD000D9FF46C0DAFFDE26000EDD2247C0D9FF6C
:100DE00048C0DAFFDFCF49F0020EDE26DFCF4AF03F
:100DF000000EDD2249C0D9FF4AC0DAFFDECF4BF03A
:100E0000DDCF4CF04BC060F04CC061F0626A636AA9
:100E1000646A656A666A676AAFEF06F045C0D9FF23
:100E200046C0DAFFDECFF6FFDDCFF7FF0800F55052
:100E30006F0AD8A41EEF07F020EF07F047EF07F086
:100E400045C0D9FF46C0DAFFDE2A000EDD2247C0CA
:100E5000D9FF48C0DAFFDFCF49F0020EDE26DFCF30
:100E60004AF0000EDD2249C0D9FF4AC0DAFFDECFCA
:100E70004BF0DDCF4CF04BC060F04CC061F0626ACB
:100E8000636A646A656A666A676AAFEF06F045C0BE
:100E9000D9FF46C0DAFFDECF01F0DDCF02F0450E0C
:100EA000036E060E046E000E066E020E056E1DEC3D
:100EB00015F001500210D8A460EF07F062EF07F0C0
:100EC0008AEF07F0020E45C0D9FF46C0DAFFDE26E2
:100ED000000EDD2247C0D9FF48C0DAFFDFCF49F05E
:100EE000020EDE26DFCF4AF0000EDD2249C0D9FF18
:100EF0004AC0DAFFDECF4BF0DDCF4CF04BC060F0E4
:100F00004CC061F0626A636A646A656A666A676AAD
:100F1000AFEF06F045C0D9FF46C0DAFFDECF01F0E3
:100F2000DDCF02F0290E036E060E046E000E066E73
:100F3000030E056E1DEC15F001500210D8A4A3EFAE
:100F400007F0A5EF07F0CDEF07F0030E45C0D9FF7E
:100F500046C0DAFFDE26000EDD2247C0D9FF48C0BA
:100F6000DAFFDFCF49F0020EDE26DFCF4AF0000EB7
:100F7000DD2249C0D9FF4AC0DAFFDECF5DF0DDCF08
:100F80005EF05DC0D9FF5EC0DAFF8CC0DFFF000EEF
:100F9000446E000E436E40EF0CF045C0D9FF46C0D2
:100FA000DAFFDECF01F0DDCF02F02A0E036E060E6F
:100FB000046E000E066E020E056E1DEC15F001505B
:100FC0000210D8A4E6EF07F0E8EF07F00EEF08F004
:100FD000020E45C0D9FF46C0DAFFDE26000EDD2234
:100FE00047C0D9FF48C0DAFFDFCF49F0020EDE2646
:100FF000DFCF4AF0000EDD2249C0D9FF4AC0DAFF38
:10100000DECF5DF0DDCF5EF05DC0D9FF5EC0DAFF00
:101010008CC0DEFF8DC0DDFFC7EF07F045C0D9FFF4
:1010200046C0DAFFDECFF6FFDDCFF7FF0800F55050
:101030006E0AD8A41EEF08F020EF08F045EF08F084
:1010400045C0D9FF46C0DAFFDE2A000EDD2247C0C8
:10105000D9FF48C0DAFFDFCF49F0020EDE26DFCF2E
:101060004AF0000EDD2249C0D9FF4AC0DAFFDECFC8
:101070005DF0DDCF5EF05DC0D9FF5EC0DAFF8CC0F1
:10108000DEFF8DC0DDFFC7EF07F045C0D9FF46C0CA
:10109000DAFFDECF01F0DDCF02F0420E036E060E66
:1010A000046E000E066E020E056E1DEC15F001506A
:1010B0000210D8A45EEF08F060EF08F086EF08F0A9
:1010C000020E45C0D9FF46C0DAFFDE26000EDD2243
:1010D00047C0D9FF48C0DAFFDFCF49F0020EDE2655
:1010E000DFCF4AF0000EDD2249C0D9FF4AC0DAFF47
:1010F000DECF5DF0DDCF5EF05DC0D9FF5EC0DAFF10
:101100008CC0DEFF8DC0DDFFC7EF07F045C0D9FF03
:1011100046C0DAFFDECFF6FFDDCFF7FF0800F5505F
:10112000700AD8A496EF08F098EF08F0DBEF08F00B
:1011300045C0D9FF46C0DAFFDE2A000EDD2247C0D7
:10114000D9FF48C0DAFFDFCF49F0020EDE26DFCF3D
:101150004AF0000EDD2249C0D9FF4AC0DAFFDECFD7
:101160004BF0DDCF4CF04BC060F04CC061F0626AD8
:10117000636A646A656A666A676A43C01CF044C051
:101180001DF060C01EF061C01FF062C020F063C09F
:1011900021F064C022F065C023F066C024F067C06F
:1011A00025F0780E266EB2EC0DF01CC043F01DC089
:1011B00044F040EF0CF045C0D9FF46C0DAFFDECF67
:1011C000F6FFDDCFF7FF0800F550730AD8A4EBEF68
:1011D00008F0EDEF08F018EF09F045C0D9FF46C060
:1011E000DAFFDE2A000EDD2247C0D9FF48C0DAFF51
:1011F000DFCF49F0020EDE26DFCF4AF0000EDD22FF
:1012000049C0D9FF4AC0DAFFDECF4DF0DDCF4EF046
:1012100043C00AF044C00BF04DC00CF04EC00DF0BE
:10122000A2EC12F00AC043F00BC044F040EF0CF007
:1012300045C0D9FF46C0DAFFDECF01F0DDCF02F0B6
:10124000310E036E060E046E000E066E030E056E62
:101250001DEC15F001500210D8A431EF09F033EF66
:1012600009F072EF09F0030E45C0D9FF46C0DAFF5E
:10127000DE26000EDD2247C0D9FF48C0DAFFDFCFEF
:1012800049F0020EDE26DFCF4AF0000EDD2249C013
:10129000D9FF4AC0DAFFDF504B6E4B50606E616A77
:1012A000626A636A646A656A666A676A43C01CF058
:1012B00044C01DF060C01EF061C01FF062C020F08D
:1012C00063C021F064C022F065C023F066C024F042
:1012D00067C025F01EEC0FF01CC043F01DC044F0A9
:1012E00040EF0CF045C0D9FF46C0DAFFDECF01F079
:1012F000DDCF02F0320E036E060E046E000E066E97
:10130000020E056E1DEC15F001500210D8A48BEFF3
:1013100009F08DEF09F0B5EF09F0020E45C0D9FFD5
:1013200046C0DAFFDE26000EDD2247C0D9FF48C0E6
:10133000DAFFDFCF49F0020EDE26DFCF4AF0000EE3
:10134000DD2249C0D9FF4AC0DAFFDECF4BF0DDCF46
:101350004CF04BC060F04CC061F0626A636A646A32
:10136000656A666A676A56EF09F045C0D9FF46C0EC
:10137000DAFFDECFF6FFDDCFF7FF0800F550750A84
:10138000D8A4C5EF09F0C7EF09F0EEEF09F045C0AA
:10139000D9FF46C0DAFFDE2A000EDD2247C0D9FFA2
:1013A00048C0DAFFDFCF49F0020EDE26DFCF4AF079
:1013B000000EDD2249C0D9FF4AC0DAFFDECF4BF074
:1013C000DDCF4CF04BC060F04CC061F0626A636AE4
:1013D000646A656A666A676A56EF09F045C0D9FFB4
:1013E00046C0DAFFDECF01F0DDCF02F0480E036E1B
:1013F000060E046E000E066E020E056E1DEC15F054
:1014000001500210D8A407EF0AF009EF0AF031EFFB
:101410000AF0020E45C0D9FF46C0DAFFDE26000EF4
:10142000DD2247C0D9FF48C0DAFFDFCF49F0020E06
:10143000DE26DFCF4AF0000EDD2249C0D9FF4AC0C8
:10144000DAFFDECF4BF0DDCF4CF04BC060F04CC08C
:1014500061F0626A636A646A656A666A676A56EF1F
:1014600009F045C0D9FF46C0DAFFDECF01F0DDCF7D
:1014700002F0350E036E060E046E000E066E030EAD
:10148000056E1DEC15F001500210D8B44AEF0AF0B9
:101490004CEF0AF067EF0AF045C0D9FF46C0DAFF0B
:1014A000DECF01F0DDCF02F01D0E036E060E046EDE
:1014B000000E066E030E056E1DEC15F001500210B5
:1014C000D8A465EF0AF067EF0AF0BBEF0AF045C059
:1014D000D9FF46C0DAFFDECF49F0DDCF4AF0020E79
:1014E0004926000E4A2249C0F6FF4AC0F7FF08000D
:1014F000F5CF5FF0030E45C0D9FF46C0DAFFDE2608
:10150000000EDD2247C0D9FF48C0DAFFDFCF49F027
:10151000020EDE26DFCF4AF0000EDD2249C0D9FFE1
:101520004AC0DAFFDF504B6E4B50606E616A626AF0
:10153000636A646A656A666A676A43C01CF044C08D
:101540001DF060C01EF061C01FF062C020F063C0DB
:1015500021F064C022F065C023F066C024F067C0AB
:1015600025F05FC026F0B2EC0DF01CC043F01DC0AA
:1015700044F040EF0CF045C0D9FF46C0DAFFDECFA3
:1015800001F0DDCF02F0360E036E060E046E000E83
:10159000066E020E056E1DEC15F001500210D8B457
:1015A000D4EF0AF0D6EF0AF0F1EF0AF045C0D9FF08
:1015B00046C0DAFFDECF01F0DDCF02F01E0E036E73
:1015C000060E046E000E066E020E056E1DEC15F082
:1015D00001500210D8A4EFEF0AF0F1EF0AF02CEF5F
:1015E0000BF045C0D9FF46C0DAFFDECF49F0DDCFB2
:1015F0004AF0010E4926000E4A2249C0F6FF4AC0B1
:10160000F7FF0800F5CF5FF0020E45C0D9FF46C0D6
:10161000DAFFDE26000EDD2247C0D9FF48C0DAFF20
:10162000DFCF49F0020EDE26DFCF4AF0000EDD22CA
:1016300049C0D9FF4AC0DAFFDECF4BF0DDCF4CF016
:101640004BC060F04CC061F0626A636A646A656AAC
:10165000666A676A9DEF0AF045C0D9FF46C0DAFFA7
:10166000DECFF6FFDDCFF7FF0800F550780AD8B4DB
:101670003CEF0BF03EEF0BF050EF0BF045C0D9FF05
:1016800046C0DAFFDECFF6FFDDCFF7FF0800F550EA
:10169000580AD8A44EEF0BF050EF0BF082EF0BF08E
:1016A00045C0D9FF46C0DAFFDECFF6FFDDCFF7FF3A
:1016B0000800F5CF5FF045C0D9FF46C0DAFFDE2A4B
:1016C000000EDD2247C0D9FF48C0DAFFDFCF49F066
:1016D000020EDE26DFCF4AF0000EDD2249C0D9FF20
:1016E0004AC0DAFFDECF4BF0DDCF4CF04BC060F0EC
:1016F0004CC061F0626A636A646A656A666A676AB6
:101700009DEF0AF045C0D9FF46C0DAFFDECF01F0F9
:10171000DDCF02F04B0E036E060E046E000E066E59
:10172000020E056E1DEC15F001500210D8B49BEFAF
:101730000BF09DEF0BF0B8EF0BF045C0D9FF46C0A2
:10174000DAFFDECF01F0DDCF02F0390E036E060EB8
:10175000046E000E066E020E056E1DEC15F00150B3
:101760000210D8A4B6EF0BF0B8EF0BF0F3EF0BF0CC
:1017700045C0D9FF46C0DAFFDECF49F0DDCF4AF0E1
:10178000010E4926000E4A2249C0F6FF4AC0F7FF63
:101790000800F5CF5FF0020E45C0D9FF46C0DAFF62
:1017A000DE26000EDD2247C0D9FF48C0DAFFDFCFBA
:1017B00049F0020EDE26DFCF4AF0000EDD2249C0DE
:1017C000D9FF4AC0DAFFDECF4BF0DDCF4CF04BC083
:1017D00060F04CC061F0626A636A646A656A666A56
:1017E000676A9DEF0AF045C0D9FF46C0DAFFDECF39
:1017F000F6FFDDCFF7FF0800F550250AD8A403EF68
:101800000CF005EF0CF01CEF0CF045C0D9FF46C002
:10181000DAFFDE2A000EDD22000E026E250E016EBA
:1018200043C003F044C004F060EC16F0000E446EB8
:10183000010E436E40EF0CF045C0D9FF46C0DAFF01
:10184000DE2A000EDD22C7EF07F045C0D9FF46C0F3
:10185000DAFFDECFF6FFDDCFF7FF0800F550016EAF
:10186000026A43C003F044C004F060EC16F045C0C7
:10187000D9FF46C0DAFFDE2A000EDD2216EF0CF09B
:1018800012001EC036F01FC037F020C038F021C053
:1018900039F022C03AF023C03BF024C03CF025C010
:1018A0003DF03DBE56EF0CF059EF0CF0010E5AEF33
:1018B0000CF0000E346E356A34503510D8B463EF36
:1018C0000CF065EF0CF075EF0CF03D1E3C1E3B1E5E
:1018D0003A1E391E381E371E366C000E372238224B
:1018E00039223A223B223C223D22000191BF7BEF6C
:1018F0000CF07DEF0CF07EEF0CF0929391BF8BEF2C
:101900000CF0915106E19005D8B089EF0CF08BEF07
:101910000CF091EF0CF0000E316E010E306E95EF71
:101920000CF090C030F091C031F08EC032F08FC01A
:1019300033F034503510D8A4A0EF0CF0A2EF0CF027
:10194000A9EF0CF092A5A7EF0CF0A9EF0CF0ACEF0B
:101950000CF03206D8A03306000E3F6E1F0E3E6E0E
:10196000000EB76F30EF0DF03E06D8A03F06980E80
:101970003E24D96E000E3F20DA6E36C001F037C02B
:1019800002F038C003F039C004F03AC005F03BC0A3
:1019900006F03CC007F03DC008F00A0E096E000ECC
:1019A0000A6E000E0B6E000E0C6E000E0D6E000E19
:1019B0000E6E000E0F6E000E106E65EC13F001C07F
:1019C00026F002C027F003C028F004C029F005C0AB
:1019D0002AF006C02BF007C02CF008C02DF026C05E
:1019E00013F028C014F072EC18F01350300FDF6EB3
:1019F0003006D8A031063206D8A0330636C001F032
:101A000037C002F038C003F039C004F03AC005F026
:101A10003BC006F03CC007F03DC008F00A0E096E5E
:101A2000000E0A6E000E0B6E000E0C6E000E0D6E98
:101A3000000E0E6E000E0F6E000E106EDEEC11F03A
:101A400001C036F002C037F003C038F004C039F0EE
:101A500005C03AF006C03BF007C03CF008C03DF0BE
:101A60003FBE3BEF0DF03F5008E13E04D8A03BEFF6
:101A70000DF03DEF0DF06EEF0DF0365037103810D1
:101A800039103A103B103C103D10D8A44AEF0DF02D
:101A90004CEF0DF0B4EF0CF031BE59EF0DF03150BA
:101AA00006E13004D8B057EF0DF059EF0DF0B4EF68
:101AB0000CF033BE64EF0DF0335008E13204D8A0CF
:101AC00064EF0DF066EF0DF06EEF0DF0000192B3D4
:101AD0006CEF0DF06EEF0DF0B4EF0CF034503510EC
:101AE000D8A475EF0DF077EF0DF07FEF0DF000014A
:101AF00092A57DEF0DF07FEF0DF09DEF0DF03E060E
:101B0000D8A03F0634503510D8A489EF0DF08BEFE4
:101B10000DF091EF0DF0000E2F6E2B0E2E6E95EF47
:101B20000DF0000E2F6E2D0E2E6E980E3E24D96EE7
:101B3000000E3F20DA6E2EC0DFFF1CC011F01DC06A
:101B400012F0980E3E24136E000E3F20146E32C029
:101B500015F033C016F0C5EC16F011C01CF012C021
:101B60001DF01200000191BFB8EF0DF0BAEF0DF0BB
:101B7000BBEF0DF0929391BFC8EF0DF0915106E1CC
:101B80009005D8B0C6EF0DF0C8EF0DF0CEEF0DF018
:101B9000000E346E010E336ED2EF0DF090C033F0B4
:101BA00091C034F08EC035F08FC036F092A9DBEFD3
:101BB0000DF0DDEF0DF0E1EF0DF0FE0E3526FF0E1E
:101BC00036221EC037F01FC038F020C039F021C0C7
:101BD0003AF022C03BF023C03CF024C03DF025C0C9
:101BE0003EF0000E406E1F0E3F6E000EB76FACEF62
:101BF0000EF03F06D8A040060F0E3714416E426A21
:101C000042BE0CEF0EF0425009E10A0E415CD8A032
:101C10000CEF0EF00EEF0EF016EF0EF0570E412403
:101C2000416E000E4220426E1CEF0EF0300E412439
:101C3000416E000E4220426EBF0E276EFF0E286ED0
:101C40002650296E2A6A2750292628502A222A50EF
:101C50000AE11A0E295CD8A030EF0EF033EF0EF037
:101C6000010E34EF0EF0000E2F6E306A2F50301040
:101C7000D8B43DEF0EF03FEF0EF06FEF0EF09F0E79
:101C8000276EFF0E286E200E4110296E000E4210A6
:101C90002A6E2750292628502A222A500AE11A0E95
:101CA000295CD8A056EF0EF059EF0EF0010E5AEF56
:101CB0000EF0000E316E326A31503210D8B463EF3C
:101CC0000EF065EF0EF06FEF0EF041C007F042C06E
:101CD00008F0A8EC17F007C041F008C042F0980ED9
:101CE0003F24D96E000E4020DA6E41C0DFFF33067C
:101CF000D8A034063506D8A0360637C027F038C03D
:101D000028F039C029F03AC02AF03BC02BF03CC083
:101D10002CF03DC02DF03EC02EF0050E99EF0EF0D8
:101D2000D8902E322D322C322B322A3229322832C0
:101D30002732E82E90EF0EF027C037F028C038F099
:101D400029C039F02AC03AF02BC03BF02CC03CF03F
:101D50002DC03DF02EC03EF040BEB8EF0EF040501A
:101D600009E1020E3F5CD8A0B8EF0EF0BAEF0EF01A
:101D7000EBEF0EF03750381039103A103B103C1092
:101D80003D103E10D8A4C7EF0EF0C9EF0EF0F9EFEA
:101D90000DF034BED6EF0EF0345006E13304D8B067
:101DA000D4EF0EF0D6EF0EF0F9EF0DF036BEE1EF06
:101DB0000EF0365008E13504D8A0E1EF0EF0E3EF65
:101DC0000EF0EBEF0EF0000192B3E9EF0EF0EBEF47
:101DD0000EF0F9EF0DF0000192A9F1EF0EF0F3EF24
:101DE0000EF009EF0FF03F06D8A04006980E3F24F2
:101DF000D96E000E4020DA6E26C0DFFF3F06D8A065
:101E00004006980E3F24D96E000E4020DA6E300E48
:101E1000DF6E1CC011F01DC012F0980E3F24136E2F
:101E2000000E4020146E35C015F036C016F0C5EC1B
:101E300016F011C01CF012C01DF01200000191BF7D
:101E400024EF0FF026EF0FF027EF0FF0929391BFE2
:101E500034EF0FF0915106E19005D8B032EF0FF05A
:101E600034EF0FF03AEF0FF0000E2F6E010E2E6ED2
:101E70003EEF0FF090C02EF091C02FF08EC030F0EA
:101E80008FC031F01EC032F01FC033F020C034F0DC
:101E900021C035F022C036F023C037F024C038F01E
:101EA00025C039F0000E3B6E1F0E3A6E000EB76F64
:101EB000D0EF0FF03A06D8A03B06980E3A24D96E20
:101EC000000E3B20DA6E32C001F033C002F034C0A5
:101ED00003F035C004F036C005F037C006F038C056
:101EE00007F039C008F00A0E096E000E0A6E000EE7
:101EF0000B6E000E0C6E000E0D6E000E0E6E000EC0
:101F00000F6E000E106EF8EC15F001C026F002C046
:101F100027F003C028F004C029F005C02AF006C04D
:101F20002BF007C02CF008C02DF02650300FDF6ECC
:101F30002E06D8A02F063006D8A0310632C001F0F8
:101F400033C002F034C003F035C004F036C005F0F1
:101F500037C006F038C007F039C008F00A0E096E25
:101F6000000E0A6E000E0B6E000E0C6E000E0D6E53
:101F7000000E0E6E000E0F6E000E106EA5EC14F02B
:101F800001C032F002C033F003C034F004C035F0B9
:101F900005C036F006C037F007C038F008C039F089
:101FA0003A503B10D8B4D7EF0FF0D9EF0FF00AEF4B
:101FB00010F03250331034103510361037103810FE
:101FC0003910D8A4E6EF0FF0E8EF0FF05AEF0FF05A
:101FD0002FBEF5EF0FF02F5006E12E04D8B0F3EF2F
:101FE0000FF0F5EF0FF05AEF0FF031BE00EF10F0E9
:101FF000315008E13004D8A000EF10F002EF10F0EB
:102000000AEF10F0000192B308EF10F00AEF10F0A1
:102010005AEF0FF01CC011F01DC012F0980E3A24B8
:10202000136E000E3B20146E30C015F031C016F058
:10203000C5EC16F011C01CF012C01DF0120000011A
:1020400091BF25EF10F027EF10F028EF10F09293DA
:1020500091BF35EF10F0915106E19005D8B033EF04
:1020600010F035EF10F03BEF10F0000E2F6E010E68
:102070002E6E3FEF10F090C02EF091C02FF08EC06A
:1020800032F08FC033F01EC034F01FC035F020C0D6
:1020900036F021C037F022C038F023C039F024C018
:1020A0003AF025C03BF0000E3D6E1F0E3C6E000E58
:1020B000B76F000E316E000E306EA4EF10F03C06CC
:1020C000D8A03D06070E3414306E316A980E3C24B9
:1020D000D96E000E3D20DA6E3050300FDF6E2E06C6
:1020E000D8A02F063206D8A0330634C026F035C05B
:1020F00027F036C028F037C029F038C02AF039C0A0
:102100002BF03AC02CF03BC02DF0040E91EF10F0F4
:10211000D8902D322C322B322A32293228322732D3
:102120002632E82E88EF10F026C034F027C035F0B4
:1021300028C036F029C037F02AC038F02BC039F05B
:102140002CC03AF02DC03BF03DBEAFEF10F03D503B
:1021500008E13C04D8A0AFEF10F0B1EF10F0E2EFCF
:1021600010F03450351036103710381039103A103E
:102170003B10D8A4BEEF10F0C0EF10F05FEF10F0EE
:102180002FBECDEF10F02F5006E12E04D8B0CBEFCC
:1021900010F0CDEF10F05FEF10F033BED8EF10F07D
:1021A000335008E13204D8A0D8EF10F0DAEF10F085
:1021B000E2EF10F0000192B3E0EF10F0E2EF10F068
:1021C0005FEF10F0000192A9E8EF10F0EAEF10F0D5
:1021D00001EF11F030503110D8B4F1EF10F0F3EFFF
:1021E00010F001EF11F03C06D8A03D06980E3C24FB
:1021F000D96E000E3D20DA6E300EDF6E3206D8A0AA
:1022000033061CC011F01DC012F0980E3C24136E52
:10221000000E3D20146E32C015F033C016F0C5EC30
:1022200016F011C01CF012C01DF01200000E166E48
:10223000000E156E000E0F6E000E0E6E22EF11F0E6
:10224000084A092A010E146E08C0F6FF09C0F7FFFC
:102250000800F550200AD8B430EF11F032EF11F039
:102260004FEF11F0F70E0A6EFF0E0B6E08C0F6FF6F
:1022700009C0F7FF0800F5500C6E0D6A0A500C26D5
:102280000B500D220D5009E1050E0C5CD8A04BEF50
:1022900011F04DEF11F04FEF11F0000E146E14C05D
:1022A00010F0116A10501110D8A459EF11F05BEF23
:1022B00011F020EF11F065EF11F0000E0F6E010E1E
:1022C0000E6E084A092A9AEF11F008C0F6FF09C0FD
:1022D000F7FF0800F5500A6E0B6A0B50000AD8B4DD
:1022E00074EF11F09AEF11F00A502B0AD8B461EF95
:1022F00011F0060AD8B45DEF11F09AEF11F015C095
:1023000001F016C002F0000E046E0A0E036E54ECCB
:1023100019F008C0F6FF09C0F7FF0800F550015E8C
:10232000000E025A300E0124156E000E0220166EA9
:1023300061EF11F0D00E0A6EFF0E0B6E08C0F6FFB3
:1023400009C0F7FF0800F5500C6E0D6A0A500C2604
:102350000B500D220D500AE10A0E0C5CD8A0B3EF11
:1023600011F0B6EF11F0010EB7EF11F0000E126E82
:10237000136A12501310D8A4C0EF11F0C2EF11F07D
:102380007FEF11F00E500F10D8A4C9EF11F0CBEF72
:1023900011F0D9EF11F015C00AF016C00BF00A1EAB
:1023A0000B1E0A4A0B2A0AC008F00BC009F0DDEF29
:1023B00011F015C008F016C009F01200000E126EE0
:1023C00010BEE7EF11F0E5EF11F0F9EF11F0101E7C
:1023D0000F1E0E1E0D1E0C1E0B1E0A1E096C000E7B
:1023E0000A220B220C220D220E220F221022010E95
:1023F000126E08BE00EF12F0FEEF11F012EF12F0B5
:10240000081E071E061E051E041E031E021E016C6A
:10241000000E02220322042205220622072208229D
:10242000010E121A20EE13F0070EDE6AE806FDE236
:1024300009500A100B100C100D100E100F10101078
:10244000D8B425EF12F027EF12F079EF12F0010E59
:10245000116E35EF12F0D89009360A360B360C366D
:102460000D360E360F361036112A10AE3AEF12F036
:102470003CEF12F02BEF12F0D890133614361536CD
:1024800016361736183619361A360950015C0A50B6
:1024900002580B5003580C5004580D5005580E505C
:1024A00006580F50075810500858D8A05AEF12F08D
:1024B0005CEF12F06DEF12F00950015E0A50025A03
:1024C0000B50035A0C50045A0D50055A0E50065A20
:1024D0000F50075A1050085A1380D89010320F32FC
:1024E0000E320D320C320B320A320932112E3CEF11
:1024F00012F01250D8B47FEF12F081EF12F091EF8A
:1025000012F01A1E191E181E171E161E151E141E56
:10251000136C000E142215221622172218221922DB
:102520001A2213C001F014C002F015C003F016C047
:1025300004F017C005F018C006F019C007F01AC063
:1025400008F0120020EEE4F010EE0FF0060EDBCFE4
:10255000E3FFE806FCE20CC01AF00DC01BF01A50B5
:102560001B10D8A4B6EF12F0B8EF12F0BCEF12F0C7
:102570000F0E1A6E000E1B6E1AC001F01BC002F087
:1025800021EC19F001C01EF002C01FF090C01CF039
:1025900091C01DF01DBECFEF12F0D1EF12F0E6EFAB
:1025A00012F01E501C5C1D50800A0E6E1F50800AD7
:1025B0000E58D8A0DEEF12F0E0EF12F0E2EF12F0CA
:1025C000E6EF12F01CC01EF01DC01FF01EC01CF074
:1025D0001FC01DF08EC018F08FC019F0000192B11D
:1025E000F4EF12F0F6EF12F013EF13F004EF13F024
:1025F000000E026E200E016E0AC003F00BC004F044
:1026000060EC16F01E4A1F2A18501E5C1F50800AEC
:102610000E6E1950800A0E58D8A011EF13F013EF68
:1026200013F0F8EF12F0000E176E000E166E2CEF7E
:1026300013F01AC0D9FF1BC0DAFFDF500E6E0E5028
:10264000016E026A0AC003F00BC004F060EC16F0E1
:102650001A4A1B2A164A172A1C50165C1750800A61
:102660000E6E1D50800A0E58D8A039EF13F03BEFC4
:1026700013F019EF13F0000192A141EF13F043EFB3
:1026800013F060EF13F051EF13F0000E026E200E06
:10269000016E0AC003F00BC004F060EC16F01E4A95
:1026A0001F2A18501E5C1F50800A0E6E1950800A97
:1026B0000E58D8A05EEF13F060EF13F045EF13F063
:1026C0001EC00AF01FC00BF01200000E126E08BEF2
:1026D0006EEF13F06CEF13F080EF13F0081E071E7F
:1026E000061E051E041E031E021E016C000E0222A1
:1026F000032204220522062207220822010E126E5E
:1027000010BE87EF13F085EF13F097EF13F0101E54
:102710000F1E0E1E0D1E0C1E0B1E0A1E096C000E37
:102720000A220B220C220D220E220F221022095007
:102730000A100B100C100D100E100F101010D8B442
:10274000A4EF13F0A6EF13F0EEEF13F0010E116EED
:10275000B4EF13F0D89009360A360B360C360D3626
:102760000E360F361036112A10AEB9EF13F0BBEF4C
:1027700013F0AAEF13F00950015C0A5002580B50F5
:1027800003580C5004580D5005580E5006580F5061
:10279000075810500858D8A0D0EF13F0D2EF13F01C
:1027A000E2EF13F00950015E0A50025A0B50035A2F
:1027B0000C50045A0D50055A0E50065A0F50075A25
:1027C0001050085AD89010320F320E320D320C329F
:1027D0000B320A320932112EBBEF13F01250D8B46B
:1027E000F4EF13F0F6EF13F006EF14F0081E071ED7
:1027F000061E051E041E031E021E016C000E022290
:1028000003220422052206220722082201C001F029
:1028100002C002F003C003F004C004F005C005F0DC
:1028200006C006F007C007F008C008F01200800ECE
:10283000735CD8A01EEF14F020EF14F029EF14F011
:10284000000E0001956F4B0E946F70687168A4EFD5
:1028500014F070C0BCF071C0BDF0735009E1020EFD
:10286000725CD8A036EF14F038EF14F045EF14F096
:10287000FF0E72240001C06FFF0E7320C16F000EA7
:10288000BF6F000EBE6F4EEF14F0000E0001C16F5F
:10289000010EC06F000EBF6F010EBE6FBC0E686EE2
:1028A000000E696E74C06AF075C06BF076C06CF093
:1028B00077C06DF077EC17F068C0BAF069C0BBF074
:1028C00072507310D8B467EF14F069EF14F0A0EFF2
:1028D00014F00001BBBF6FEF14F071EF14F0A0EF24
:1028E00014F0FF0E786EFF0E796E72C07AF073C02E
:1028F0007BF078507A2679507B227A50BA5DBB51B2
:10290000800A7C6E7B50800A7C58D8A08AEF14F035
:102910008CEF14F094EF14F0FF0E7224B86FFF0EDA
:102920007320B96F98EF14F0BAC0B8F0BBC0B9F01B
:10293000B8517024D96EB9517120DA6E000EDF6E75
:10294000BAC070F0BBC071F0120020EE11F0070E9B
:10295000DE6AE806FDE209500A100B100C100D109B
:102960000E100F101010D8B4B8EF14F0BAEF14F026
:102970000CEF15F0010E196EC8EF14F0D89009365F
:102980000A360B360C360D360E360F361036192A2F
:1029900010AECDEF14F0CFEF14F0BEEF14F0D890DE
:1029A00011361236133614361536163617361836D3
:1029B0000950015C0A5002580B5003580C5004583F
:1029C0000D5005580E5006580F5007581050085813
:1029D000D8A0EDEF14F0EFEF14F000EF15F0095070
:1029E000015E0A50025A0B50035A0C50045A0D5003
:1029F000055A0E50065A0F50075A1050085A1180A7
:102A0000D89010320F320E320D320C320B320A32A5
:102A10000932192ECFEF14F011C001F012C002F0EC
:102A200013C003F014C004F015C005F016C006F082
:102A300017C007F018C008F0120001C008F002C06B
:102A400009F003C00AF004C00BF00506D8A0060682
:102A5000052806E10628D8A430EF15F032EF15F06E
:102A60003FEF15F0000E026E000E016E8BEF15F0B9
:102A7000084A092A0A4A0B2A0506D8A0060608C0F1
:102A8000F6FF09C0F7FF0800F5500009D8B44BEF76
:102A900015F04DEF15F079EF15F00AC0F6FF0BC0F9
:102AA000F7FF0800F5500009D8B459EF15F05BEFB7
:102AB00015F079EF15F005500610D8B462EF15F057
:102AC00064EF15F079EF15F008C0F6FF09C0F7FFC5
:102AD0000800F5CF07F00AC0F6FF0BC0F7FF0800AB
:102AE000F5500718D8B477EF15F079EF15F038EFF7
:102AF00015F008C0F6FF09C0F7FF0800F5CF07F092
:102B00000AC0F6FF0BC0F7FF0800F550075C016E26
:102B1000026AD8A00206120000018E518F11D8A4BB
:102B200094EF15F096EF15F09CEF15F08EC010F0B5
:102B30008FC011F0A2EF15F0FF0E8E25106EFF0E64
:102B40008F21116E92A1A7EF15F0A9EF15F0B2EF4A
:102B500015F00CC001F0026A0AC003F00BC004F0CB
:102B600060EC16F011BEB7EF15F0B9EF15F0BBEF42
:102B700015F0BFEF15F0000E116E000E106E000E76
:102B80000F6E000E0E6ED1EF15F0000E026E200ECD
:102B9000016E0AC003F00BC004F060EC16F00E4AA0
:102BA0000F2A10500E5C0F50800A0D6E1150800AD3
:102BB0000D58D8A0DEEF15F0E0EF15F0C5EF15F0D9
:102BC000000192B1E6EF15F0E8EF15F0F1EF15F026
:102BD0000CC001F0026A0AC003F00BC004F060EC04
:102BE00016F0010E0E240A6E000E0F200B6E12005E
:102BF00009500A100B100C100D100E100F101010B1
:102C0000D8B405EF16F007EF16F04FEF16F0010EEF
:102C1000116E15EF16F0D89009360A360B360C36C1
:102C20000D360E360F361036112A10AE1AEF16F08A
:102C30001CEF16F00BEF16F00950015C0A50025819
:102C40000B5003580C5004580D5005580E500658A0
:102C50000F50075810500858D8A031EF16F033EF36
:102C600016F043EF16F00950015E0A50025A0B505D
:102C7000035A0C50045A0D50055A0E50065A0F5064
:102C8000075A1050085AD89010320F320E320D32B7
:102C90000C320B320A320932112E1CEF16F001C031
:102CA00001F002C002F003C003F004C004F005C04C
:102CB00005F006C006F007C007F008C008F01200D3
:102CC00003500410D8B467EF16F069EF16F072EFF6
:102CD00016F003500410D8A470EF16F072EF16F03F
:102CE00077EF16F0015099EC19F0C4EF16F020EED2
:102CF00004F00350D9260450DA22DE50DE10D8B496
:102D000084EF16F086EF16F0A1EF16F020EE04F037
:102D10000350D9260450DA2210EE02F00350E126C7
:102D20000450E222DE50E65CE650800A096EDE5076
:102D3000800A0958D8B09FEF16F0A1EF16F0C4EF43
:102D400016F020EE02F00350D9260450DA22DECF2E
:102D500005F0DDCF06F003C0D9FF04C0DAFFDECFF7
:102D600007F0DDCF08F005500724D96E0650082083
:102D7000DA6E01C0DFFF20EE02F00350D9260450C6
:102D8000DA22DE2A000EDD221200000192A1CBEF32
:102D900016F0CDEF16F0D7EF16F013C00AF014C0FE
:102DA0000BF011C00CF012C00DF02FEC18F016BE95
:102DB000DCEF16F0DEEF16F0E4EF16F015C01AF0B7
:102DC00016C01BF0E8EF16F0000E1B6E000E1A6E18
:102DD000000E196E000E186EFAEF16F0000E026E5D
:102DE000200E016E11C003F012C004F060EC16F06A
:102DF000184A192A1A50185C1950800A176E1B506D
:102E0000800A1758D8A007EF17F009EF17F0EEEF78
:102E100016F0000192B10FEF17F011EF17F01BEF52
:102E200017F013C00AF014C00BF011C00CF012C060
:102E30000DF02FEC18F013C001F014C002F021ECDB
:102E400019F01A500124116E1B500220126E12004C
:102E50008CEC19F096EC19F0800E016E250E026EC6
:102E6000000E036E82EC19F067EC19F0010E026E91
:102E7000060E036ED7EC17F0060E7E6E130E7D6EF7
:102E8000AE0EE82EFED77D2EFCD77E2EFAD793927B
:102E9000060E7E6E130E7D6EAE0EE82EFED77D2ED4
:102EA000FCD77E2EFAD79382B0EC18F001C0E2F086
:102EB00002C0E3F0CE0E0001C26F000EC36F000E21
:102EC000C56F140EC46F140EC66F060EC76FE2C036
:102ED000C8F0E3C0C9F03CEC19F0CE0E026E000E53
:102EE000036ED7EC17F036EF17F000EF00F06AC072
:102EF0006EF06BC06FF0000E00018D6F000E8C6FD6
:102F000095EF17F068C043F069C044F06E0E456E4F
:102F1000000E466E6CC047F06DC048F028EC03F020
:102F2000435000018C2744508D236EC0F6FF6FC0C4
:102F3000F7FF0800F5500009D8A4A1EF17F0A3EFA0
:102F400017F082EF17F08CC068F08DC069F01200A6
:102F50009F0E096EFF0E0A6E07C00BF008C00CF042
:102F600009500B260A500C220C500AE11A0E0B5C79
:102F7000D8A0BDEF17F0C0EF17F0010EC1EF17F0AA
:102F8000000E0D6E0E6A0D500E10D8B4CAEF17F079
:102F9000CCEF17F0D2EF17F05F0E0714076E086A38
:102FA000D6EF17F007C007F008C008F01200EDEFE9
:102FB00017F002C0F6FF03C0F7FFF86A050EF764CA
:102FC00003D00800F55005D0F6CFE1FFF7CFE2FFC0
:102FD000E75077EC19F0024A032A02C0F6FF03C05B
:102FE000F7FFF86A050EF76403D00800F55005D026
:102FF000F6CFE1FFF7CFE2FFE7500009D8A403EFD7
:1030000018F005EF18F0D9EF17F01200010E076E57
:10301000200E01180210D8B410EF18F012EF18F0BB
:103020002BEF18F0F70E036EFF0E046E01C005F0D3
:1030300002C006F00350052604500622065009E19E
:10304000050E055CD8A027EF18F029EF18F02BEF3C
:1030500018F0000E076E07C001F0026A1200000EA1
:10306000106E000E0F6E40EF18F00EC001F0026AF5
:103070000CC003F00DC004F060EC16F00F4A102AEB
:103080000F500A24D96E10500B20DA6EDF500E6EEE
:103090000E50D8A44EEF18F050EF18F035EF18F09E
:1030A0001200240EF66E330EF76E000EF86E00EE70
:1030B000E4F010EE07F00900F5CFEEFFE550E15027
:1030C000FAE101EE00F0240EEE6AE806FDE100EE02
:1030D00080F0380EEE6AE806FDE1000EF86E0001A1
:1030E00028EF17F014BE7FEF18F0145006E1130418
:1030F000D8B07DEF18F07FEF18F08DEF18F013C007
:1031000015F014C016F0151E161E154A162A15C005
:1031100013F016C014F091EF18F013C013F014C0A0
:1031200014F012009F0E036EFF0E046E200E0110AD
:10313000056E000E0210066E03500526045006228E
:1031400006500AE11A0E055CD8A0A9EF18F0ACEF02
:1031500018F0010EADEF18F0000E016E026A1200B9
:10316000C250C30B0409C26EC282C2B2BAEF18F0D9
:10317000BCEF18F0B5EF18F0C350C4CF03F0046AE9
:1031800003C004F0036A0310056E0450066E9E9C93
:1031900005C001F006C002F012009F0E036EFF0E84
:1031A000046E01C005F002C006F00350052604506D
:1031B000062206500AE11A0E055CD8A0E2EF18F0CC
:1031C000E5EF18F0010EE6EF18F0000E016E026A4E
:1031D0001200BF0E036EFF0E046E01C005F002C0A8
:1031E00006F0035005260450062206500AE11A0E86
:1031F000055CD8A0FEEF18F001EF19F0010E02EF08
:1032000019F0000E016E026A1200D00E036EFF0E5E
:10321000046E01C005F002C006F0035005260450FC
:10322000062206500AE10A0E055CD8A01AEF19F032
:103230001DEF19F0010E1EEF19F0000E016E026A6B
:10324000120001C003F002C004F029EF19F0014A96
:10325000022A01C0D9FF02C0DAFFDF50D8A433EF41
:1032600019F035EF19F027EF19F00350015C016EEA
:1032700004500258026E1200C80E0001CC6F000EFE
:10328000CD6FC2C070F0C3C071F0C4C072F0C5C0D1
:1032900073F0C6C074F0C7C075F0CC0E766E000E29
:1032A000776E17EC14F0120001500302F3CF05F013
:1032B000F4CF06F001500402F35006260250030238
:1032C000F350062605C001F006C002F01200926815
:1032D000C150F00B0D09C16EC198C19AC050F80BD6
:1032E0000609C06E380EC012C09EC2801200016E68
:1032F0009EA87DEF19F07FEF19F078EF19F001C06B
:10330000ADFF1200AC8AAC98AC94B896AB8E000EB0
:10331000B06E0C0EAF6E1200700ED312D39E030E61
:0B332000D3121200286E756C6C29009F
:08332C00948C948E1200120033
:020000040020DA
:08000000FFFFFFFFFFFFFFFF00
:020000040030CA
:0E000000FF091F1EFF8385FF0FC00FE00F409A
:00000001FF
