:020000040000FA
:0400000042EF0AF0D1
:100600000001000800400000020010008001000A04
:10061000006400E803102701001000000100103002
:100620003132333435363738394142434445460058
:100630003031323334353637383961626364656658
:100640000048554D49443A2025750A0054454D50FF
:0D0650003A2025750A0054494D450A000066
:10065E00110E226E000E236EB1EF08F0250E291832
:10066E00D8B43CEF03F03EEF03F048EF03F00DC0BB
:10067E00D9FF0EC0DAFF29C0DFFF0D4A0E2AB1EFF7
:10068E0008F0000E286E000E276E000E2B6E000E68
:10069E002A6E64EF03F02A860F4A102A64EF03F0E5
:1006AE002A800F4A102A64EF03F02B860F4A102A75
:1006BE0064EF03F02A840F4A102A0FC0F6FF10C011
:1006CE00F7FF0800F550200AD8B457EF03F0030ADD
:1006DE00D8B45CEF03F00E0AD8B452EF03F01D0A43
:1006EE00D8B461EF03F07CEF03F02AA681EF03F09C
:1006FE0083EF03F084EF03F02A940FC0F6FF10C0CF
:10070E00F7FF0800F550EDEC09F0D8A091EF03F0DB
:10071E0093EF03F0CCEF03F0000E286E000E276E61
:10072E0027C001F028C002F0000E046E0A0E036E00
:10073E001EEC0AF001C027F002C028F0D00E136E96
:10074E00FF0E146E0FC0F6FF10C0F7FF0800F55035
:10075E00156E166A1350152614501622155027269C
:10076E00165028220F4A102A0FC0F6FF10C0F7FFAE
:10077E000800F550EDEC09F0D8B0C8EF03F0CAEF61
:10078E0003F097EF03F0E8EF03F00FC0F6FF10C091
:10079E00F7FF0800F5502A0AD8A4D8EF03F0DAEFD5
:1007AE0003F0E8EF03F022C0D9FF23C0DAFFDECF5B
:1007BE0027F0DDCF28F0020E2226000E23220F4A4C
:1007CE00102A0FC0F6FF10C0F7FF0800F5502E0AD2
:1007DE00D8A4F4EF03F0F6EF03F042EF04F02B8C05
:1007EE000F4A102A0FC0F6FF10C0F7FF0800F55091
:1007FE002A0AD8A405EF04F007EF04F01FEF04F067
:10080E0022C0D9FF23C0DAFFDF50266E020E222649
:10081E00000E232226BE18EF04F016EF04F01BEF95
:10082E0004F0000E266E2B9C0F4A102AF0EF04F0F7
:10083E00000E266E31EF04F00A0E2602F350266EDD
:10084E000FC0F6FF10C0F7FF0800F550D00F262698
:10085E000F4A102A0FC0F6FF10C0F7FF0800F55020
:10086E00EDEC09F0D8B03EEF04F040EF04F023EFCA
:10087E0004F0F0EF04F0000E266EF0EF04F02A8C78
:10088E001CEF05F02A8A2A8E1CEF05F02650D8B4EC
:10089E0053EF04F055EF04F068EF04F0800E26BE1F
:1008AE007F0E136E2050265C2150800A1358D8B04C
:1008BE0063EF04F065EF04F068EF04F026C020F05B
:1008CE00216A2750205C28502158D8B071EF04F0CF
:1008DE0073EF04F079EF04F02050275E2150285A70
:1008EE007DEF04F0000E286E000E276E2AB682EF02
:1008FE0004F084EF04F0ABEF04F08EEF04F00DC0C3
:10090E00D9FF0EC0DAFF200EDF6E0D4A0E2A270623
:10091E00D8A02806272806E12828D8A499EF04F0A5
:10092E009BEF04F086EF04F0ABEF04F017C0D9FF95
:10093E0018C0DAFF0DC0E1FF0EC0E2FFDFCFE7FF08
:10094E00174A182A0D4A0E2A2006D8A0210620285A
:10095E0006E12128D8A4B6EF04F0B8EF04F09DEF1D
:10096E0004F02AA6BDEF04F0BFEF04F0B1EF08F0DB
:10097E00C9EF04F00DC0D9FF0EC0DAFF200EDF6EF6
:10098E000D4A0E2A2706D8A02806272806E1282871
:10099E00D8A4D4EF04F0D6EF04F0C1EF04F0B1EF19
:1009AE0008F022C0D9FF23C0DAFFDF50296E020EF5
:1009BE002226000E2322290E176E000E186E000E30
:1009CE00216E010E206E4DEF04F0C00E2A121CEFA8
:1009DE0005F00FC0F6FF10C0F7FF0F4A102A0800EF
:1009EE00F5CF29F02950000AD8B4C2EF08F0580A02
:1009FE00D8B449EF04F03B0AD8B4D8EF04F0070A94
:100A0E00D8B41CEF05F00D0AD8B41CEF05F0060A99
:100A1E00D8B446EF04F01A0AD8B4ECEF04F00D0A7D
:100A2E00D8B44AEF04F0E2EF04F0C00E2A14136EAD
:100A3E00000E2B14146E13501410D8A429EF05F0C9
:100A4E002BEF05F046EF05F022C0D9FF23C0DAFFE9
:100A5E00DECF24F0DDCF25F0020E2226000E23225B
:100A6E0025BE3EEF05F03CEF05F052EF05F0030E0C
:100A7E002A12246C251ED8B0252A52EF05F022C06A
:100A8E00D9FF23C0DAFFDECF24F0DDCF25F0020E32
:100A9E002226000E23222650D8A458EF05F05AEF36
:100AAE0005F0DBEF05F024502510D8A461EF05F01A
:100ABE0063EF05F0DBEF05F0262ADBEF05F0010E04
:100ACE00296E050E2918D8A46FEF05F071EF05F009
:100ADE0073EF05F0EFEF05F02950020D0D0EF32424
:100AEE00F66E060EF420F76E0900F550245C090030
:100AFE00F5502558D8B086EF05F088EF05F08AEF4F
:100B0E0005F0EFEF05F0292A68EF05F0010E296ECA
:100B1E00040E2918D8A496EF05F098EF05F09AEF79
:100B2E0005F0EFEF05F02950020D170EF324F66EC7
:100B3E00060EF420F76E0900F550245C0900F550FE
:100B4E002558D8B0ADEF05F0AFEF05F0B1EF05F0D9
:100B5E00EFEF05F0292A8FEF05F0010E296E060E34
:100B6E002918D8A4BDEF05F0BFEF05F0C1EF05F0D1
:100B7E00EFEF05F02950020D010EF324F66E060E6E
:100B8E00F420F76E0900F550245C0900F550255845
:100B9E00D8B0D4EF05F0D6EF05F0D8EF05F0EFEFB3
:100BAE0005F0292AB6EF05F02A50C00B000AD8B47A
:100BBE0066EF05F0400AD8B4B4EF05F0C00AD8B419
:100BCE008DEF05F0400AD8B466EF05F0EFEF05F0B3
:100BDE002950D880D88426AE265CD8A0D884D8B424
:100BEE00FBEF05F0FDEF05F001EF06F026C029F052
:100BFE0010EF06F02950D89026AE265CD8B0D880DB
:100C0E00D8B00CEF06F00EEF06F010EF06F029C08C
:100C1E0026F027502810D8B417EF06F019EF06F07B
:100C2E002BEF06F0030E2A14136E000E2B14146E07
:100C3E0013501410D8B426EF06F028EF06F02BEF61
:100C4E0006F02706D8A028062BAC30EF06F032EFC0
:100C5E0006F04EEF06F0800E26BE7F0E136E275066
:100C6E00265C2850800A1358D8B040EF06F042EFA9
:100C7E0006F04AEF06F02650275E000E26BEFF0E47
:100C8E00285A4EEF06F0000E286E000E276EC40E88
:100C9E00136E080E146E2AC015F02BC016F01350EA
:100CAE00151614501616400E151807E1080E1618D4
:100CBE00D8A464EF06F066EF06F074EF06F0275046
:100CCE002810D8B46DEF06F06FEF06F0A4EF06F023
:100CDE002706D8A02806A4EF06F0C00E136E080E45
:100CEE00146E2AC015F02BC016F0135015161450A2
:100CFE001616800E151807E1080E1618D8A48AEFDE
:100D0E0006F08CEF06F0A4EF06F028BE98EF06F082
:100D1E00285009E1030E275CD8A098EF06F09AEF51
:100D2E0006F0A0EF06F0FE0E2726FF0E2822A4EFF7
:100D3E0006F0000E286E000E276E2950136E146AF0
:100D4E002750135C1450800A156E2850800A1558CF
:100D5E00D8B0B4EF06F0B6EF06F0BCEF06F02950AF
:100D6E00275E000E285AC0EF06F0000E286E000E09
:100D7E00276E2AA4C5EF06F0C7EF06F047EF07F07F
:100D8E00030E2A14136E000E2B14146E135014102F
:100D9E00D8B4D4EF06F0D6EF06F0E0EF06F00DC0B3
:100DAE00D9FF0EC0DAFF2D0EDF6E0D4A0E2A28EF88
:100DBE0007F02AA0E5EF06F0E7EF06F0EFEF06F0FA
:100DCE000DC0D9FF0EC0DAFF200EDF6EDCEF06F08D
:100DDE00C00E136E080E146E2AC015F02BC016F03E
:100DEE001350151614501616800E151807E1080E1E
:100DFE001618D8A405EF07F007EF07F028EF07F055
:100E0E000DC0D9FF0EC0DAFF300EDF6E0D4A0E2A6E
:100E1E002ABA14EF07F016EF07F01CEF07F0000EDA
:100E2E001A6E780E196E20EF07F0000E1A6E580E1D
:100E3E00196E0DC0D9FF0EC0DAFF19C0DFFFDCEF4F
:100E4E0006F027502810D8B42FEF07F031EF07F037
:100E5E0080EF08F00DC0D9FF0EC0DAFF300EDF6E46
:100E6E000D4A0E2A2706D8A0280627502810D8A4E7
:100E7E0043EF07F045EF07F031EF07F080EF08F092
:100E8E0027502810D8B44EEF07F050EF07F06BEF55
:100E9E0007F02AB655EF07F057EF07F06BEF07F0A4
:100EAE000DC0D9FF0EC0DAFF200EDF6E0D4A0E2ADE
:100EBE002706D8A0280627502810D8A469EF07F0D7
:100ECE006BEF07F057EF07F0030E2A14136E000EA8
:100EDE002B14146E13501410D8B478EF07F07AEF69
:100EEE0007F084EF07F00DC0D9FF0EC0DAFF2D0E0C
:100EFE00DF6E0D4A0E2A93EF07F02AA089EF07F056
:100F0E008BEF07F093EF07F00DC0D9FF0EC0DAFF9D
:100F1E00200EDF6E80EF07F0C00E136E080E146EFB
:100F2E002AC015F02BC016F01350151614501616B5
:100F3E00400E151807E1080E1618D8A4A9EF07F0F1
:100F4E00ABEF07F0B5EF07F00DC0D9FF0EC0DAFF1B
:100F5E00300EDF6E0D4A0E2A80EF08F0C00E136EB3
:100F6E00080E146E2AC015F02BC016F0135015166D
:100F7E0014501616800E151807E1080E1618D8A470
:100F8E00CBEF07F0CDEF07F0EEEF07F00DC0D9FF76
:100F9E000EC0DAFF300EDF6E0D4A0E2A2ABADAEFD5
:100FAE0007F0DCEF07F0E2EF07F0000E1C6E780E94
:100FBE001B6EE6EF07F0000E1C6E580E1B6E0DC07A
:100FCE00D9FF0EC0DAFF1BC0DFFFB1EF07F080EFD5
:100FDE0008F02650020D0D0EF324F66E060EF420C8
:100FEE00F76E0900F5CF03F00A00F5CF04F024C028
:100FFE0001F025C002F050EC09F001C008F002C06B
:10100E0009F0000E0B6E0A0E0A6E8AEC09F00850FB
:10101E00300F296E78EF08F024C001F025C002F0E1
:10102E002650020D170EF324F66E060EF420F76E00
:10103E000900F5CF03F00A00F5CF04F050EC09F0EB
:10104E0001500F0B1F6E2ABA2FEF08F031EF08F088
:10105E0037EF08F0300E1D6E060E1E6E3BEF08F0D9
:10106E001F0E1D6E060E1E6E1F501D24136E000EDB
:10107E001E20146E13C0F6FF14C0F7FF0800F5CF44
:10108E0029F078EF08F024C001F025C002F02650B8
:10109E00020D010EF324F66E060EF420F76E090013
:1010AE00F5CF03F00A00F5CF04F050EC09F0015033
:1010BE00070B300F296E78EF08F02A50C00B000A8C
:1010CE00D8B4F0EF07F0400AD8B44AEF08F0C00ADF
:1010DE00D8B413EF08F0400AD8B4F0EF07F078EF69
:1010EE0008F00DC0D9FF0EC0DAFF29C0DFFFB1EF47
:1010FE0007F026062628D8A487EF08F089EF08F017
:10110E0064EF08F02AA68EEF08F090EF08F0B1EF2A
:10111E0008F028BE9BEF08F0285008E12704D8A05D
:10112E009BEF08F09DEF08F0B1EF08F00DC0D9FF6E
:10113E000EC0DAFF200EDF6E0D4A0E2A2706D8A04B
:10114E00280627502810D8A4AFEF08F0B1EF08F00A
:10115E009DEF08F00FC0F6FF10C0F7FF0F4A102AE0
:10116E000800F5CF29F02950D8A4C0EF08F0C2EF3F
:10117E0008F035EF03F00DC0D9FF0EC0DAFF000EF8
:10118E00DF6E1200000E506E000E4F6E62EC0AF013
:10119E0068EC0AF0250E026E800E016E58EC0AF015
:1011AE0031EC0AF0060E2D6E130E2C6EAE0EE82EDE
:1011BE00FED72C2EFCD72D2EFAD79392060E2D6E1F
:1011CE00130E2C6EAE0EE82EFED72C2EFCD72D2E27
:1011DE00FAD79382000EBCEC09F001C04DF002C0AC
:1011EE004EF02E0E0D6E000E0E6E4C0E0F6E060E87
:1011FE00106E4DC011F04EC012F02FEC03F02E0EFB
:10120E00026E000E036E06EC0AF0020E2D6E040E38
:10121E002C6EBA0EE82EFED72C2EFCD72D2EFAD71A
:10122E0000D0010EBCEC09F001C04FF002C050F02E
:10123E002E0E0D6E000E0E6E410E0F6E060E106E01
:10124E004FC011F050C012F02FEC03F02E0E026EB4
:10125E00000E036E06EC0AF0020E2D6E040E2C6EBE
:10126E00BA0EE82EFED72C2EFCD72D2EFAD700D094
:10127E00420E0D6E000E0E6E560E0F6E060E106E98
:10128E004CC011F0126A2FEC03F0D9EF08F000EF0A
:10129E0000F0000E066E000E056E03500410D8B45A
:1012AE005BEF09F05DEF09F085EF09F0010E076EB7
:1012BE0065EF09F0D89003360436072A04AE6AEFBC
:1012CE0009F06CEF09F061EF09F0D890053606369B
:1012DE000350015C04500258D8A078EF09F07AEF61
:1012EE0009F07FEF09F00350015E0450025A0580A9
:1012FE00D89004320332072E6CEF09F005C001F0CE
:10130E0006C002F012000A500B10D8B491EF09F08B
:10131E0093EF09F0B7EF09F0010E0C6E9BEF09F099
:10132E00D8900A360B360C2A0BAEA0EF09F0A2EFBE
:10133E0009F097EF09F00A50085C0B500958D8A035
:10134E00ABEF09F0ADEF09F0B1EF09F00A50085E0E
:10135E000B50095AD8900B320A320C2EA2EF09F01C
:10136E0008C008F009C009F01200076E0750D8A493
:10137E00C3EF09F0C5EF09F0C9EF09F0C250C30B76
:10138E000409C26E0704D8A4CFEF09F0D1EF09F01B
:10139E00D5EF09F0C250C30B0809C26EC282C2B2A9
:1013AE00DBEF09F0DDEF09F0D6EF09F0C350C4CF43
:1013BE0003F0046A03C004F0036A0310056E0450C0
:1013CE00066E05C001F006C002F01200036E000E9C
:1013DE00026E3A0E0360F6EF09F0F8EF09F002EF35
:1013EE000AF02F0E0364FEEF09F000EF0AF002EF91
:1013FE000AF0010E026E02C001F00130120011EF70
:10140E000AF002C0D9FF03C0DAFFDF504DEC0AF03C
:10141E00024A032A02C0D9FF03C0DAFFDF50D8A464
:10142E001BEF0AF01DEF0AF008EF0AF01200015050
:10143E000302F3CF05F0F4CF06F001500402F3508F
:10144E00062602500302F350062605C001F006C020
:10145E0002F0120092829284C150F00B0C09C16E00
:10146E00C198C19AC050F80B0609C06E380EC01252
:10147E00C08EC280120000EE51F00E0EEE6AE8062B
:10148E00FDE1000EF86E0001C9EF08F0016E9EA896
:10149E0053EF0AF055EF0AF04EEF0AF001C0ADFF20
:1014AE001200AC8AAC98AC94B896AB8E000EB06EAF
:1014BE000C0EAF6E1200700ED312D39E030ED3120B
:0814CE001200948C948E1200B0
:020000040020DA
:08000000FFFFFFFFFFFFFFFF00
:020000040030CA
:0E000000FF091F1EFF8385FF0FC00FE00F409A
:00000001FF
