:020000040000FA
:0400000003EF05F015
:100600000001000A006400E803102748554D4944E2
:100610003A2025750A0054454D503A2025750A00A8
:0106200000D9
:10062200110E146E000E156EABEF03F0250E1918A5
:10063200D8B41EEF03F020EF03F02AEF03F00DC051
:10064200D9FF0EC0DAFF19C0DFFF0D4A0E2AABEF49
:1006520003F0000E136E32EF03F0C00E131246EFDA
:1006620003F00FC0F6FF10C0F7FF0F4A102A080070
:10067200F5CF19F01950000AD8B4BCEF03F0750A8F
:10068200D8B42EEF03F0ABEF03F014C0D9FF15C0BE
:10069200DAFFDECF16F0DDCF17F0020E1426000EC1
:1006A2001522010E196E1950020D010EF324F66E79
:1006B200060EF420F76E0900F550165C0900F5509D
:1006C2001758D8B067EF03F069EF03F06BEF03F050
:1006D20075EF03F0192A050E1918D8A473EF03F069
:1006E20075EF03F054EF03F019C018F0A2EF03F016
:1006F2001850020D010EF324F66E060EF420F76E6A
:100702000900F5CF03F00A00F5CF04F016C001F09E
:1007120017C002F03DEC04F001C008F002C009F07D
:10072200000E0B6E0A0E0A6E77EC04F00850300FC2
:10073200196E0DC0D9FF0EC0DAFF19C0DFFF0D4AD6
:100742000E2A18061828D8A4A9EF03F0ABEF03F07D
:1007520079EF03F00FC0F6FF10C0F7FF0F4A102A1F
:100762000800F5CF19F01950D8A4BAEF03F0BCEF86
:1007720003F017EF03F00DC0D9FF0EC0DAFF000E31
:10078200DF6E1200000E336E000E326E23EC05F0A7
:1007920029EC05F0250E026E800E016E19EC05F0B3
:1007A200F2EC04F0060E1B6E130E1A6EAE0EE82E5D
:1007B200FED71A2EFCD71B2EFAD79392060E1B6E6B
:1007C200130E1A6EAE0EE82EFED71A2EFCD71B2E73
:1007D200FAD79382000EA9EC04F001C030F002C0F7
:1007E20031F01C0E0D6E000E0E6E160E0F6E060E02
:1007F200106E30C011F031C012F011EC03F01C0E7B
:10080200026E000E036EDAEC04F0020E1B6E040E92
:100812001A6EBA0EE82EFED71A2EFCD71B2EFAD766
:1008220000D0010EA9EC04F001C032F002C033F096
:100832001C0E0D6E000E0E6E0B0E0F6E060E106E5F
:1008420032C011F033C012F011EC03F01C0E026E34
:10085200000E036EDAEC04F0020E1B6E040E1A6E2A
:10086200BA0EE82EFED71A2EFCD71B2EFAD700D0CE
:10087200D3EF03F000EF00F0000E066E000E056EDF
:1008820003500410D8B448EF04F04AEF04F072EFBA
:1008920004F0010E076E52EF04F0D89003360436CE
:1008A200072A04AE57EF04F059EF04F04EEF04F0BC
:1008B200D890053606360350015C04500258D8A081
:1008C20065EF04F067EF04F06CEF04F00350015E93
:1008D2000450025A0580D89004320332072E59EF91
:1008E20004F005C001F006C002F012000A500B101D
:1008F200D8B47EEF04F080EF04F0A4EF04F0010E10
:100902000C6E88EF04F0D8900A360B360C2A0BAE28
:100912008DEF04F08FEF04F084EF04F00A50085CCE
:100922000B500958D8A098EF04F09AEF04F09EEF0C
:1009320004F00A50085E0B50095AD8900B320A3262
:100942000C2E8FEF04F008C008F009C009F0120065
:10095200076E0750D8A4B0EF04F0B2EF04F0B6EF80
:1009620004F0C250C30B0809C26E0704D8A4BCEF3E
:1009720004F0BEEF04F0C2EF04F0C250C30B04094E
:10098200C26EC282C2B2C8EF04F0CAEF04F0C3EF73
:1009920004F0C350C4CF03F0046A03C004F0036A36
:1009A2000310056E0450066E05C001F006C002F089
:1009B2001200E5EF04F002C0D9FF03C0DAFFDF50F6
:1009C2000EEC05F0024A032A02C0D9FF03C0DAFF87
:1009D200DF50D8A4EFEF04F0F1EF04F0DCEF04F005
:1009E200120092829284C150F00B0C09C16EC19820
:1009F200C19AC050F80B0609C06E380EC012C08EE4
:100A0200C280120000EE34F00E0EEE6AE806FDE13E
:100A1200000EF86E0001C3EF03F0016E9EA814EF02
:100A220005F016EF05F00FEF05F001C0ADFF120063
:100A3200AC8AAC98AC94B896AB8E000EB06E0C0E2D
:100A4200AF6E1200700ED312D39E030ED312120099
:060A5200948C948E12004A
:020000040020DA
:08000000FFFFFFFFFFFFFFFF00
:020000040030CA
:0E000000FF091F1EFF8385FF0FC00FE00F409A
:00000001FF
