:020000040000FA
:040000005BEF05F0BD
:100600000001000A006400E80310274461766520B9
:1006100069732061206C6567656E64210A00485526
:100620004D49443A2025750A0054454D503A20253D
:10063000750A0000110E146E000E156EB4EF03F073
:10064000250E1918D8B427EF03F029EF03F033EF84
:1006500003F00DC0D9FF0EC0DAFF19C0DFFF0D4A4D
:100660000E2AB4EF03F0000E136E3BEF03F0C00E42
:1006700013124FEF03F00FC0F6FF10C0F7FF0F4A41
:10068000102A0800F5CF19F01950000AD8B4C5EFA8
:1006900003F0750AD8B437EF03F0B4EF03F014C0D9
:1006A000D9FF15C0DAFFDECF16F0DDCF17F0020E4E
:1006B0001426000E1522010E196E1950020D010E9E
:1006C000F324F66E060EF420F76E0900F550165C62
:1006D0000900F5501758D8B070EF03F072EF03F02F
:1006E00074EF03F07EEF03F0192A050E1918D8A451
:1006F0007CEF03F07EEF03F05DEF03F019C018F01C
:10070000ABEF03F01850020D010EF324F66E060E47
:10071000F420F76E0900F5CF03F00A00F5CF04F0DE
:1007200016C001F017C002F05EEC04F001C008F042
:1007300002C009F0000E0B6E0A0E0A6E98EC04F06F
:100740000850300F196E0DC0D9FF0EC0DAFF19C066
:10075000DFFF0D4A0E2A18061828D8A4B2EF03F0BE
:10076000B4EF03F082EF03F00FC0F6FF10C0F7FF05
:100770000F4A102A0800F5CF19F01950D8A4C3EF7A
:1007800003F0C5EF03F020EF03F00DC0D9FF0EC05A
:10079000DAFF000EDF6E1200000E336E000E326EB6
:1007A0007BEC05F08EEC05F0250E026E800E016EDE
:1007B00071EC05F03DEC05F04EEC05F0060E1B6EFD
:1007C000130E1A6EAE0EE82EFED71A2EFCD71B2E75
:1007D000FAD79392060E1B6E130E1A6EAE0EE82E0B
:1007E000FED71A2EFCD71B2EFAD793820B0E026E61
:1007F000060E036EFBEC04F0000ECAEC04F001C020
:1008000030F002C031F01C0E0D6E000E0E6E290E7F
:100810000F6E060E106E30C011F031C012F01AECDF
:1008200003F01C0E026E000E036EFBEC04F0020ED1
:100830001B6E040E1A6EBA0EE82EFED71A2EFCD7C7
:100840001B2EFAD700D0010ECAEC04F001C032F022
:1008500002C033F01C0E0D6E000E0E6E1E0E0F6EDB
:10086000060E106E32C011F033C012F01AEC03F015
:100870001C0E026E000E036EFBEC04F0020E1B6EEB
:10088000040E1A6EBA0EE82EFED71A2EFCD71B2EB7
:10089000FAD700D08AEC05F0000E036EDE0E026E71
:1008A00081EC05F0000E036E000E026E81EC05F087
:1008B00086EC05F0DEEF03F000EF00F0000E066EB0
:1008C000000E056E03500410D8B469EF04F06BEF0E
:1008D00004F093EF04F0010E076E73EF04F0D8906C
:1008E00003360436072A04AE78EF04F07AEF04F0FA
:1008F0006FEF04F0D890053606360350015C0450C3
:100900000258D8A086EF04F088EF04F08DEF04F0D1
:100910000350015E0450025A0580D890043203321D
:10092000072E7AEF04F005C001F006C002F01200B5
:100930000A500B10D8B49FEF04F0A1EF04F0C5EFFC
:1009400004F0010E0C6EA9EF04F0D8900A360B36B5
:100950000C2A0BAEAEEF04F0B0EF04F0A5EF04F0FC
:100960000A50085C0B500958D8A0B9EF04F0BBEF4F
:1009700004F0BFEF04F00A50085E0B50095AD890FB
:100980000B320A320C2EB0EF04F008C008F009C098
:1009900009F01200076E0750D8A4D1EF04F0D3EF8E
:1009A00004F0D7EF04F0C250C30B0409C26E070471
:1009B000D8A4DDEF04F0DFEF04F0E3EF04F0C25061
:1009C000C30B0809C26EC282C2B2E9EF04F0EBEFBA
:1009D00004F0E4EF04F0C350C4CF03F0046A03C092
:1009E00004F0036A0310056E0450066E05C001F0A2
:1009F00006C002F0120011EF05F002C0F6FF03C0BE
:100A0000F7FFF86A050EF76403D00800F55005D02B
:100A1000F6CFE9FFF7CFEAFFEF5066EC05F0024AA8
:100A2000032A02C0F6FF03C0F7FFF86A050EF76459
:100A300003D00800F55005D0F6CFE9FFF7CFEAFF65
:100A4000EF500009D8A427EF05F029EF05F0FDEFDE
:100A500004F01200C7B42FEF05F031EF05F02AEFD4
:100A600005F0C5CF01F01F0E0116D8A43AEF05F02E
:100A70003CEF05F02AEF05F0120092829284C150FB
:100A8000F00B0C09C16EC198C19AC050F80B060951
:100A9000C06E380EC012C08EC28012009486948838
:100AA000130EC86E000EC76EC68AC650F00B08093A
:100AB000C66E9E96120000EE34F00E0EEE6AE80648
:100AC000FDE1000EF86E0001CCEF03F0016E9EA870
:100AD0006CEF05F06EEF05F067EF05F001C0ADFFBC
:100AE0001200AC8AAC98AC94B896AB8E000EB06E87
:100AF0000C0EAF6E1200700ED312D39E030ED312E3
:100B000012002AEC05F002C0C9FF12002AEC05F021
:100B1000C58412002AEC05F0C5801200948C948ED6
:020B20001200C1
:020000040020DA
:08000000FFFFFFFFFFFFFFFF00
:020000040030CA
:0E000000FF091F1EFF8385FF0FC00FE00F409A
:00000001FF
